:0400000080312828FB
:100008007E1480314E01161E0A280B2813280C1E58
:100018000E280F28132897314027803126280B1FD8
:10002800162817282628991E1A281B2826288F1EC6
:100038001E281F282628410144088A0043080A0070
:10004800803126287E10090080312A28F03084006B
:100058002D3085000030FE000230FF0097318427E4
:100068008031F601F701F801F901FA014001EC01CC
:10007800ED01EE01EF01A0308400003085002E3044
:10008800FE000030FF009731842780317E10400148
:100098008831AB284101E601E70140016408B0005E
:1000A8006308AF009630B1009830B2008B31DD2381
:1000B8008031400130084101D10040012F08410141
:1000C800D00085286635D23E860087015008C03F9B
:1000D8005108C13F0130E6070030E73D00304001DC
:1000E800AF00B0009630B1009830B2008B31DD23FC
:1000F8008031400130084101D10040012F08410101
:10010800D00050085104031D8A288B2866285308FC
:100118004001A100410152084001A0009130A20015
:100128009830A300893155218031400120082104ED
:10013800031D9F28A028DD286E080319A428A528D8
:10014800AB28C5308831CD2080314001EE01410116
:10015800C501C60155084001A700410154084001E6
:10016800A6008D3128258031400126084101C700AD
:1001780057084001A700410156084001A6008D31EB
:1001880028258031400126084101C800CD01C5302D
:100198008A31C2228031003A0319D328D428D728BB
:1001A8004001EE01EE0A4001EF014101B701B8013B
:1001B8007D2B410153084001A10041015208400133
:1001C800A0008F30A2009830A300893155218031DA
:1001D800400120082104031DF228F328FF28C53018
:1001E80088318A208031C5308831CD208031400166
:1001F800EE01EF017D2B410153084001A1004101AF
:1002080052084001A0008730A2009830A30089312D
:1002180055218031400120082104031D1429152986
:1002280069296E08031919291A2969294101CE017A
:10023800CF01552941014E084001AD004101550843
:100248004001A700410154084001A6008D3128252E
:10025800803140012608AE00410157084001A7003F
:10026800410156084001A6008D3128258031400102
:100278002608AF00410159084001A700410158086C
:100288004001A6008D312825803140012608B000A4
:10029800C5308C314024803101304101CE07003017
:1002A800CF3D4F08803A4001E70080306702031DC8
:1002B8006029410147084E02031C632964291E294D
:1002C800C53083318D2380317D2B41015308400196
:1002D800A100410152084001A0006830A2009830F6
:1002E800A300893155218031400120082104031DD4
:1002F8007E297F29C5296E08031983298429C529E0
:10030800410155084001A700410154084001A600D9
:100318008D312825803140012608AD00410157085C
:100328004001A700410156084001A6008D3128254B
:10033800803140012608AE00410159084001A7005C
:10034800410158084001A6008D312825803140011F
:100358002608AF0041015B084001A70041015A0887
:100368004001A6008D312825803140012608B000C3
:10037800C5308C3140248031C53083318D238031A4
:100388007D2B410153084001A10041015208400161
:10039800A0003230A2009830A30089315521803165
:1003A800400120082104031DDA29DB29F4296E08FD
:1003B8000319DF29E029F429410155084001A70064
:1003C800410154084001A6008D31282580314001A3
:1003D80026084101C800C53083318D2380317D2B2B
:1003E800410153084001A100410152084001A00009
:1003F8007D30A2009830A300893155218031400119
:1004080020082104031D092A0A2A142A6E08031940
:100418000E2A0F2A142AC53088318A2080317D2B74
:10042800410153084001A100410152084001A000C8
:100438004F30A2009830A300893155218031400106
:1004480020082104031D292A2A2A492A6E0803198B
:100458002E2A2F2A492A410155084001A7004101A7
:1004680054084001A6008D31282580314001260816
:10047800AD00AE01AF01B001C5308C3140248031F0
:10048800C53083318D2380317D2B410153084001D4
:10049800A100410152084001A0002330A200983079
:1004A800A300893155218031400120082104031D12
:1004B8005E2A5F2AC52A6E080319632A642AC52A98
:1004C8004101E601E7019F2A410166084001AD00AC
:1004D800410155084001A700410154084001A60008
:1004E8008D312825803140012608AE00410157088A
:1004F8004001A700410156084001A6008D3128257A
:10050800803140012608AF00410159084001A70089
:10051800410158084001A6008D312825803140014D
:100528002608B000C5308C314024803101304101AB
:10053800E6070030E73D6708803A4001E700803071
:100548006702031DAA2A410147086602031CAD2A57
:10055800AE2A682A41015B084001A70041015A08F8
:100568004001A6008D31282580314001270841012E
:10057800B800400126084101B7004001EF01EF0A29
:100588007D2B410153084001A1004101520840015F
:10059800A0004130A2009830A30089315521803154
:1005A800400120082104031DDA2ADB2AE12A6E080B
:1005B8000319DF2AE02AE12AFD28410153084001F6
:1005C800A100410152084001A0000030A20098306B
:1005D800A300893155218031400120082104031DE1
:1005E800F62AF72A4C2B6E080319FB2AFC2A4C2BF7
:1005F800410155084001A700410154084001A600E7
:100608008D312825803140012608AD004101570869
:100618004001A700410156084001A6008D31282558
:10062800803140012608AE00410159084001A70069
:10063800410158084001A6008D312825803140012C
:100648002608AF0041015B084001A70041015A0894
:100658004001A6008D312825803140012608B000D0
:10066800C5308C314024803141015D084001A7002C
:1006780041015C084001A6008D31282580314001E8
:1006880027084101B800400126084101B700C12AE6
:10069800410153084001A100410152084001A00056
:1006A8001230A2009830A3008931552180314001D1
:1006B80020082104031D612B622B7D2B6E08031972
:1006C800662B672B7D2B410155084001A70041018E
:1006D80054084001A6008D312825803140012608A4
:1006E800AD00AE01AF01B001C5308C31402480317E
:1006F8007D2BF0304001A6002E30A7000030A80066
:10070800A9008030AA000030AB0088311120803168
:1007180008004001DD005D08063E86008701403F75
:10072800D300413FD4005D08023E860087010108DE
:10073800C200C3014208A0004308A1001830A2006B
:100748000030A30088316A20833140012108B500B8
:100758002008B4008E312326833140013508DB00A0
:100768003408DA005A085B04031DBB2BBC2BBD2BD5
:100778006F2DD9011F2D0330A2000030A3005908A6
:10078800C200C3014208A0004308A10088316A20C2
:10079800833140012008530786002108543D870013
:1007A8000108C400C5014408D7004508D8006430D2
:1007B800A6000030A7005808A1005708A0005D084F
:1007C800033E860087010108C200C3014208A20057
:1007D8004308A30088316A20833140012108A90019
:1007E8002008A8008B317D23833140012608C800EA
:1007F8000330A2000030A3005908C200C301420818
:10080800A0004308A10088316A20833140012008F4
:100818005307C4002108543DC50044088600450814
:10082800870041310108C600C7014608D7004708BC
:10083800D8006430A6000030A7005808A100570867
:10084800A0005D08033E860087010108C200C301BD
:100858004208A2004308A30088316A20833140017E
:100868002108A9002008A8008B317D23833140018D
:100878002608C9000330A2000030A3005908C200AE
:10088800C3014208A0004308A10088316A208331CF
:10089800400120085307C4002108543DC5004408FE
:1008A80086004508870042310108C600C70146088E
:1008B800D7004708D8006430A6000030A7005808C1
:1008C800A1005708A0005D08033E860087010108C3
:1008D800C200C3014208A2004308A30088316A206D
:1008E800833140012108A9002008A8008B317D230D
:1008F800833140012608CA00DC015C08C200C3013C
:100908005908C400C5014408A0004508A1001830D2
:10091800A2000030A30088316A20833140014208D8
:100928002007D5004308213DD6000130C2005C08ED
:10093800073C890AA02CC235890B9F2C4208480520
:10094800031DA72CA82CAD2C0A30CB000030CC00FE
:10095800B12C1430CB000030CC0055085A07C20027
:1009680056085B3DC30042088600430887004B08D1
:1009780081000130C2005C08073C890AC42CC235DA
:10098800890BC32C42084905031DCB2CCC2CD12C38
:100998000A30CD000030CE00D52C1430CD00003008
:1009A800CE0055085A07C20056085B3DC3004208EE
:1009B800083EC4000030433DC50044088600450891
:1009C80087004D0881000130C2005C08073C890A95
:1009D800EE2CC235890BED2C42084A05031DF52C77
:1009E800F62CFB2C0A30CF000030D000FF2C14303E
:1009F800CF000030D00055085A07C20056085B3DAA
:100A0800C3004208103EC4000030433DC5004408FE
:100A18008600450887004F0881000130C20042085F
:100A2800DC0708305C02031C1A2D1B2D812C0130B9
:100A3800C2004208D9075D08023E86008701010806
:100A48005902031C282D292DBF2BD101D201432D7A
:100A580051085A07860052085B3D87000108C2000A
:100A6800C3014208A0004308A1009731E72783315A
:100A780045018E1701304001D1070030D23D5D0895
:100A8800023E860087010108C200C3014208A00097
:100A98004308A1001830A2000030A30088316A2062
:100AA8008331400121085202031D5C2D20085102A8
:100AB800031C5F2D602D2C2D5B08A1005A08A00097
:100AC80087314727833103304001C200F530890B55
:100AD8006B2DC20B6B2D08004001DD005D08063E42
:100AE80086008701403FD400413FD5005D08023EA3
:100AF800860087010108C300C4014308A000440818
:100B0800A1001830A2000030A30088316A20853186
:100B180040012108B5002008B4008E312326853114
:100B280040013508DC003408DB005B085C04031D69
:100B38009E2D9F2DA02D462FDA01F62E0330A20000
:100B48000030A3005A08C300C4014308A0004408A9
:100B5800A10088316A2085314001200854078600A9
:100B68002108553D87000108C500C6014508D80081
:100B78004608D9006430A6000030A7005908A10033
:100B88005808A0004208C300C4014308A200440852
:100B9800A30088316A20853140012108A900200876
:100BA800A8008B317D23853140012608C900033018
:100BB800A2000030A3005A08C300C4014308A000E3
:100BC8004408A10088316A20853140012008540773
:100BD800C5002108553DC60045088600460887001F
:100BE80041310108C700C8014708D8004808D900A2
:100BF8006430A6000030A7005908A1005808A000DA
:100C08004208C300C4014308A2004408A300883175
:100C18006A20853140012108A9002008A8008B31ED
:100C28007D23853140012608CA000330A200003028
:100C3800A3005A08C300C4014308A0004408A10047
:100C480088316A208531400120085407C5002108F1
:100C5800553DC60045088600460887004231010810
:100C6800C700C8014708D8004808D9006430A60062
:100C78000030A7005908A1005808A0004208C30086
:100C8800C4014308A2004408A30088316A208531C2
:100C980040012108A9002008A8008B317D23853157
:100CA80040012608CB00DE015E08C300C4015A08D3
:100CB800C500C6014508A0004608A1001830A200DA
:100CC8000030A30088316A2085314001430820079D
:100CD800D6004408213DD7000130C3005E08073C18
:100CE800890A772EC335890B762E43084905031DDB
:100CF8007E2E7F2E842E0A30CC000030CD00882E28
:100D08001430CC000030CD0056085B07C3005708EC
:100D18005C3DC40043088600440887004C088100F5
:100D28000130C3005E08073C890A9B2EC335890B36
:100D38009A2E43084A05031DA22EA32EA82E0A3078
:100D4800CE000030CF00AC2E1430CE000030CF00E3
:100D580056085B07C30057085C3DC4004308083EBB
:100D6800C5000030443DC600450886004608870097
:100D78004E0881000130C3005E08073C890AC52E71
:100D8800C335890BC42E43084B05031DCC2ECD2E2D
:100D9800D22E0A30D0000030D100D62E1430D00028
:100DA8000030D10056085B07C30057085C3DC400FB
:100DB8004308103EC5000030443DC6004508860083
:100DC80046088700500881000130C3004308DE0749
:100DD80008305E02031CF12EF22E582E0130C3009B
:100DE8004308DA075D08023E8600870101085A02B7
:100DF800031CFF2E002FA22DD201D3011A2F520857
:100E08005B07860053085C3D87000108C300C401E6
:100E18004308A0004408A1008731E5278531450132
:100E28008E1701304001D2070030D33D5D08023EE5
:100E3800860087010108C300C4014308A0004408D4
:100E4800A1001830A2000030A30088316A20853143
:100E5800400121085302031D332F20085202031CAE
:100E6800362F372F032F5C08A1005B08A0008731BD
:100E78004727853103304001C300F530890B422FE5
:100E8800C30B422F080040012108A7002008A60034
:100E980020082104031D512F522F532FE42F260819
:100EA800FE3EA800FF30273DA90076087704031905
:100EB8005E2F5F2FDB2F2808860029088700403F18
:100EC8002607A200413F273DA30077082306031DFC
:100ED8006F2F76082206031D722F732F9E2F760818
:100EE8008600770887004231280884002908850091
:100EF8000231403F803F413F813F760886007708B6
:100F08008700403FA200413FA3002208023EA40000
:100F18000030233DA50028088600290887002408FA
:100F2800810741312508813D7F312908F7002808CC
:100F3800F600E42F7608860077088700403F76079A
:100F4800A200413F773DA3002208023EA4000030E2
:100F5800233DA50029082506031DB42F28082406CB
:100F6800031DB72FB82FD12F28088600290887001E
:100F7800403FA200413FA3002208023EA4000030E7
:100F8800233DA50076088600770887002408810796
:100F980041312508813D7F31E42F28088600290842
:100FA800870042317608C03F7708C13F992F28084B
:100FB80086002908870042310030C03FC13F992F81
:100FC8000800FF304001A0050330A10546010E1EB0
:100FD800EE2FEF2FF52F06304001A035A10D890B1C
:100FE800F12F4001210846018D00400120084601EB
:080FF8008C000800080008004D
:101004004001200821040319082809281028210870
:101014004101C400400120084101C300080040010F
:101024002708AD002608AC0021282C0886002D08CE
:101034008700280881000130AC070030AD3D013045
:10104400AA020030AB3B2A0A031D2C282B0A031DDD
:101054002C282D28172808004001A301A4014028AA
:101064000B304001A2006230890B3628A20B3628CF
:10107400000001304001A3070030A43D21082402F0
:10108400031D462820082302031C49284A28322825
:101094000800400120088400210885000008220679
:1010A400031D55285628572869282108A50020081B
:1010B400A400A00A0319A10A2408840025088500B5
:1010C4001200031D662867284B28A001A10108000F
:1010D4004001A401A501201C70287128752822084C
:1010E400A4072308A53D0130A235A30D890B76285A
:1010F4000130A136A00C890B7B2820082104031D94
:10110400842885286D282508A1002408A00008004B
:101114004001E000DF019C285F08AD00AE01AF0193
:10112400B00160088C314024883101304001DE0078
:101134005E08DF076008023E8600870101085F023F
:10114400031CA528A6288E28600883318D238831A6
:1011540008009731BD2788318B170B1751018C1765
:1011640040016F080319B728B828C5284101380879
:101174004001E000410137084001DF00C5308D31F6
:10118400A5258831C728630000008931ED21883105
:10119400B228803128284001AA002A08063E860089
:1011A4008701403FA000413FA10087314727883194
:1011B40040012A08063E860087010030C03FC13F37
:1011C4002A08860087010030C03FC13F2A08023E3A
:1011D4008600870181012A08033E86008701810178
:1011E4002A08083E86008701810108004E019912F1
:1011F400B3304001A0000C30A100883102208831B6
:10120400483042019F0090309D0006309E004430DB
:101214009B009C01FF304001A0000730A1009731E2
:101224009F27883134304001A0001730A100973146
:10123400AE2788314101BD01BE01FA01F901F8016F
:101244004E01991608007908703E860087012F30F8
:10125400873D01084001A5007908013E7F39A400BB
:101264002408F9007908A000A101A035A10DF030EF
:10127400A2002D30A3002008220786002108233D68
:101284008700403F4101BD00413FBE004E0199121D
:10129400780803194E294F2951290130F80299166B
:1012A4004001250808005E290130A0070030A13D57
:1012B4000130A2070030A33D400122088400230826
:1012C40085000008A4002008860021088700010882
:1012D4002406031D6E296F29782920088600210819
:1012E40087000108031D77297829562920088600DC
:1012F40021088700220884002308850000080102D1
:10130400A000A101031CA10308004001AD01AE012E
:1013140093290130A7070030A83D0130AD07003004
:10132400AE3D2708860028088700010803199B2979
:101334009C29B5292A08A1002908A00027088600AD
:10134400280887000108AB00AC012B08A2002C0878
:10135400A30088314B20893140012008210403195E
:10136400B429B5298B292E08A8002D08A700080048
:101374004001AD01AE01C6290130A7070030A83DE8
:101384000130AD070030AE3D2708860028088700ED
:1013940001080319CE29CF29E8292A08A100290820
:1013A400A00027088600280887000108AB00AC01CC
:1013B4002B08A2002C08A30088314B20893140015E
:1013C40020082104031DE729E829BE292E08A800C6
:1013D4002D08A7000800212A8931252189314001DF
:1013E400ED006C08F03EE800E9012E30E93D6808A4
:1013F4008600690887006D0881000130E8006808EC
:10140400EC0781306C02031C082A092A0A2AEC0121
:101414000A306D06031D0F2A102A212AF030E3003A
:101424002E30E4006C08E800E9016808E50069086A
:10143400E60080314E2089314001EC01ED01973105
:1014440038278931003A031D282A292AEE29080061
:101454004001A601A701200821040319322A332AD6
:10146400622AA501A50A3F2A0130A035A10D890BE6
:10147400372A0130A4002408A507A11F422A432AC1
:10148400362A0130A635A70D890B442A21082302E8
:10149400031D4E2A20082202031C512A522A572ACD
:1014A4002008A2022108A33B26140130A136A00C77
:1014B400890B582A0130A502031D612A622A432A96
:1014C4002708A1002608A00008004001A200220865
:1014D40086008701403FA300413FA40041012F083B
:1014E4003004031D762A772A7B2AF030AF002D3092
:1014F400B000003040012402043003192302031811
:10150400842A852A892A0430A3000030A4002308F1
:1015140041012F024001A50024084101303B400154
:10152400A600203026029A3003192502031C9B2AA8
:101534009C2AAA2A4101300840012602031DA62A3A
:1015440041012F0840012502031CA92AAA2AB32A13
:101554000C304101B5000030B6004001A001A101EA
:10156400C12A26084101B000400125084101AF000D
:1015740030084001A10041012F084001A0000800EB
:101584004001E2006208023E860087010108DE0095
:10159400DF015E08A0005F08A1000330A200003054
:1015A400A30088316A208A3140012108B50020084F
:1015B400B4008E3123268A3140013508E100340815
:1015C400E00060086104031DE82AE92AEB2A0030E0
:1015D4001E2B6208063E860087016008C03F610832
:1015E400C13F6208063E86008701403FA600413F96
:1015F400A7000030A800A9006208023E8600870107
:101604000108DE00DF015E08A0005F08A1000330CE
:10161400A2000030A30088316A208A3140012108E9
:10162400AB002008AA00883111208A3140016208E9
:1016340083318D238A3101300800400196019701DE
:10164400980199019A01FF309100FC309200FF301B
:101654009300FF30940007309500FF307E01B800FE
:10166400FA30C300FF30CE00FF30D9000730E40069
:10167400B901C401CF01DA01E501BA01C501D00104
:10168400DB01E601FF30BB00FF30C600FF30D100B4
:10169400FF30DC000730E700FF30BC00FF30C7003C
:1016A400FF30D200FF30DD000F30E8000A307D014A
:1016B400CB0015307E01980009307D01A10009306E
:1016C4007E019900BD01BE01BF010430C800043091
:1016D400C900CA01D301D401D501E901EA01EB0132
:1016E400FE304001A0000730A10097315B278B3109
:1016F4004E01161608004001AC01A71F822B832B54
:101704008A2BA609A709A60A0319A70AAC01AC0AE1
:10171400A91F8D2B8E2B972BA809A909A80A031999
:10172400A90A0130AA002A08AC06AD01AE012608B8
:10173400270403199E2B9F2BCE2BAB01AB0AAB2B9B
:101744000130A635A70D890BA32B0130AA002A0866
:10175400AB07A71FAE2BAF2BA22B0130AD35AE0DBF
:10176400890BB02B27082902031DBA2B260828024F
:10177400031CBD2BBE2BC32B2608A8022708A93B9C
:101784002D140130A736A60C890BC42B0130AB02F3
:10179400031DCD2BCE2BAF2B2C080319D22BD32B0F
:1017A400D82BAD09AE09AD0A0319AE0A2E08A7005D
:1017B4002D08A600080040012F083004031DE32B68
:1017C400E42BF52B41012E084001B00041012D0806
:1017D4004001AF002F083004031DF12BF22BF52B31
:1017E400AF01B0013F2C3008A8002F08A700320831
:1017F400AA003108A9008931BA218B314001270898
:10180400AF072808B03D2F0886003008870001087C
:10181400031D0D2C0E2C152C4101AD01AE01400110
:10182400AF01B0013F2C3008A8002F08A7003208F0
:10183400AA003108A900893187218B31400127088A
:101844002F074101AD0040012808303D4101AE00A1
:101854002D0886002E08870001080319322C332C2A
:101864003D2C2D0886002E08870081010130AD072C
:101874000030AE3D3F2CAD01AE0108004001B9007F
:101884003908023E8600870101082D02031C4B2CF7
:101894004C2C4D2CB22C3908063E86008701403F63
:1018A400B700413FB8002D08B100B2013108A000D3
:1018B4003208A1000330A2000030A30088316A205E
:1018C4008C31400120083707B3002108383DB400AB
:1018D40033088600340887002F0881002D08B100E2
:1018E400B2013108A0003208A1000330A200003088
:1018F400A30088316A208C31400120083707B300E7
:101904002108383DB4003308013EB5000030343DB1
:10191400B60035088600360887002E0881002D0899
:10192400B100B2013108A0003208A1000330A200C6
:101934000030A30088316A208C3140012008370729
:10194400B3002108383DB4003308023EB50000302E
:10195400343DB6003508860036088700300881001B
:1019640008007A08F000F101F035F10DF030F200D2
:101974002D30F3007008720786007108733D8700EC
:101984000030C03FC13F42019D1CC92CCA2CE62C2B
:101994007A08F000F101F035F10DF030F2002D304D
:1019A400F3007008720786007108733D8700011503
:1019B400410139083A040319E02CE12CE62C3A08D9
:1019C4008A0039080A008C3142011D1DEA2CEB2CD7
:1019D400072D7A08F000F101F035F10DF030F20036
:1019E4002D30F3007008720786007108733D87007C
:1019F400811441013B083C040319012D022D072DDC
:101A04003C088A003B080A008D3142011908F400A1
:101A14007A08013E7F39F50075087906031D132DF8
:101A2400142D152D272D7A08703EF000F1012F306A
:101A3400F13D7008860071088700740881007508FC
:101A4400FA000130F0007008F80708004001AB010B
:101A5400AC01AA01312D0130A6070030A73D2608AC
:101A64008600270887002030010603193A2D3B2DF4
:101A74002D2D2608860027088700F7300107A800C7
:101A840005302802031C472D482D2D2D26088600DD
:101A9400270887002D300106031D512D522D592D85
:101AA400AA01AA0A0130A6070030A73D822D260804
:101AB4008600270887002B300106031D622D632D45
:101AC400822D542D26088600270887002C08A100A3
:101AD4002B08A0000A30A2000030A30088316A203D
:101AE4008D3140012108A90001082002A800031C2F
:101AF400A9032808303EAB000030293DAC00542D2A
:101B04002608860027088700D0300107A8000A307D
:101B14002802031C8E2D8F2D642D2A08031D932D5E
:101B2400942DA02D2B09A8002C09A900A80A03199B
:101B3400A90A2808A6002908A700A42D2C08A70094
:101B44002B08A60008004001EB006B08033E86004A
:101B540087010108E100E20162086002031DB42D5F
:101B640061085F020318B72DB82DB92D222E6B081A
:101B7400033E860087010108E100E2016108A0003C
:101B84006208A1006008A3005F08A2008A312A222B
:101B94008D3140012008E3002108E400E436E30C21
:101BA4006308E5006408E6006B08033E86008701CD
:101BB4000108E100E2016108E9006208EA00EA1FA5
:101BC400E42DE52DE62DFA2D6908C2006B08853158
:101BD40070258D3140016608A1006508A000883198
:101BE4002E208D31FF304001E907FF30EA3DE12D21
:101BF400E701E801112E40016708C2006B08853136
:101C040070258D3140016608A1006508A000883167
:101C14002E208D3101304001E7070030E83D6B088C
:101C2400033E860087016808803AE1008030610243
:101C3400031D1E2E01086702031C212E222EFD2DDA
:101C440008004001BC01BD0134083504031D2B2EDE
:101C54002C2E302E0130B4070030B53D0030350253
:101C64000230031934020318382E392E3E2E023066
:101C7400B4000030B500562E3508B7003408B6005D
:101C8400B609B709003037020230031936020318C7
:101C94004C2E4D2E562E0C304101B5000030B600AE
:101CA4004001B401B501DF2E3508A1003408A000BD
:101CB4008E31E0268E3140012108BF002008BE008D
:101CC4003E083F04031D672E682EDA2E41013308B7
:101CD40031024001B60041013408323B4001B700F3
:101CE40035083702031D782E3408360203187B2E7C
:101CF4007C2EB12E3408023EB8000030353DB900C8
:101D040038308A3167228E3140012108C100200811
:101D1400C00040084104031D902E912E922E522E95
:101D24004101320840014106031D9C2E4101310846
:101D34004001400603199F2EA02EA72E4108410101
:101D4400B400400140084101B30040013808400795
:101D54004101B10040013908413D4101B200410156
:101D640034084001BF00410133084001BE003F0870
:101D7400BB003E08BA003A0886003B0887003408D6
:101D8400C03F3508C13F0230BA070030BB3D3B08B5
:101D9400BF003A08BE003408023EB6000030353DAC
:101DA400B70036084101B307400137084101B43D8B
:101DB40040013F08B5003E08B40008004001B201EC
:101DC400B301A801A901AC01AD0176087704031D94
:101DD400EC2EED2EF02EA001A101FF2F7708B1000B
:101DE4007608B000742F3008860031088700403F21
:101DF400A200413FA30021082306031D032F20084E
:101E04002206031D062F072F2C2F2C082D0403193F
:101E14000C2F0D2F1C2F300886003108870042310B
:101E24002C0884002D0885000231403F803F413F4B
:101E3400813F252F30088600310887004231403F1A
:101E4400F600413FF7003008023EA0000030313D6B
:101E5400A100FF2F3008860031088700403FA20010
:101E6400413FA30023082102031D3A2F2208200228
:101E740003183D2F3E2F672F320833040319432FD5
:101E8400442F5F2F3208860033088700403FA200AA
:101E9400413FA3003008860031088700403FA4007A
:101EA400413FA50023082502031D5A2F22082402BE
:101EB400031C5D2F5E2F5F2F672F3108B30030089E
:101EC400B2002D08A9002C08A8003108AD00300884
:101ED400AC0030088600310887004231403FB00032
:101EE400413FB10030083104031D792F7A2FF52EBC
:101EF4003208330403197F2F802FED2E3208860019
:101F0400330887004231403FAE00413FAF00320802
:101F1400860033088700403FA200413FA300200809
:101F24002202A4002108233BA5000030250205302D
:101F340003192402031C9F2FA02FE12F32088600CF
:101F440033088700403FA200413FA300200822023B
:101F5400A4002108233BA5002408FE3EA600FF3070
:101F6400253DA70032088600330887002008C03FBB
:101F74002108C13F3208860033088700403F3207FA
:101F8400A200413F333DA3002208023EAA000030D4
:101F9400233DAB002A0886002B0887002608C03F93
:101FA4002708C13F2A0886002B08870042312E08E3
:101FB400C03F2F08C13F2B08AF002A08AE003308EA
:101FC4007706031DE72F32087606031DEA2FEB2F51
:101FD400F02F2F08F7002E08F600F92F28088600A6
:101FE4002908870042312E08C03F2F08C13F32081C
:101FF400023EA0000030333DA1000800F83408344C
:1020040000340034253409340034003438341734AF
:10201400003400340034003400340034003400341C
:10202400003400340034003400340034003400340C
:1020340000340034003400340034003400340034FC
:102044000034003402340834003400349F3417342C
:10205400AE34173400340034003400340034003417
:1020640000340034003400340034003400340034CC
:1020740000340034003400340034003400340034BC
:1020840000340034003400340034003400340034AC
:0420940000340034E0
:102E680042011D121D1608007808031D3C2F3E2F35
:102E780001303F2F003008007E014A1D442F452FA6
:102E8800482F9731902797310800603051018D0005
:102E98008F0191010630930092010800400121083A
:102EA8004101C200400120084101C1000800400161
:102EB80021084101E900400120084101E80008001B
:102EC800400121084101C000400120084101BF0024
:102ED80008008F3046018E008D018C0144011E08C8
:102EE800FC3901389E0008004E010C100B1400300C
:102EF8004001A0000030A100973152279731080007
:102F08006400800101310130FE020030FF3B7F0880
:102F18007E04031D852F00344101680869040319E4
:102F2800962F972F9C2F69088A0068080A00973106
:102F38007E014A1108004001200821040319A52F29
:102F4800A62FAD2F21084101BC00400120084101F6
:102F5800BB0008004001200821040319B42FB52F35
:102F6800BC2F21084101BA00400120084101B900E5
:102F780008009731492797318B311F2397318831C2
:102F8800F820973197316D2797319731D0279731AE
:102F98009731782797310800013045019000283093
:102FA8008F00910109308D008C0100304001A00094
:102FB8000030A1009731642797314E01901080307E
:102FC80045018E000800FF304001A0050330A1052F
:102FD80046010E1EF02FF12FF72F06304001A035C5
:102FE800A10D890BF32F4001210846018D004001F6
:102FF800200846018C0008005334543441345234BC
:1030080054345F3446344134443445345F345334A3
:1030180049344E3447344C344534003453345434F2
:103028004F3450345F3446344134443445345F348B
:10303800533449344E3447344C34453400345334D3
:1030480054344134523454345F3446344134443473
:1030580045345F3441344C344C34003453344534B3
:1030680054345F3442345234493447344834543445
:103078004E344534533453340034533454344F3479
:1030880050345F3446344134443445345F34413439
:103098004C344C34003443344C3445344134523489
:1030A8005F34533449344E3447344C344534003457
:1030B800D034173400340034003400340034003481
:1030C80064341734003400345334453454345F3492
:1030D800533449344E3447344C3445340034403446
:1030E8000A341034013400346434003410340134A8
:1030F800003443344C344534413452345F34413421
:103108004C344C3400345334453454345F344134F3
:103118004C344C3400344434453449344E34493406
:08312800543400342C3400344F
:020000040001F9
:0A000E00EC3F3F3F9F3FFF3FFF3FE5
:00000001FF
