:04000000803114280F
:100008007E1480314E01161E0A280B2812280C1E59
:100018000E280F28122881316D2180317E100900A9
:1000280080311628F001F101F201F301F401F50124
:10003800F601F701F801F9017E10400181315D29CF
:10004800400196019701980199019A01FF309100AA
:10005800FC309200FF309300FF3094000730950089
:10006800FF307E01B800FE30C3007F30CE00FF3085
:10007800D9000730E400B901C401CF01DA01E50174
:10008800BA01C501D001DB01E601FF30BB00FF303A
:10009800C600FF30D100FF30DC000730E700FF303A
:1000A800BC00FF30C700FF30D200FF30DD000F304A
:1000B800E80017307D01CB0015307E01980009302B
:1000C8007D01A10009307E019900BD01BE01BF017B
:1000D800C801C901CA01D301D401D501E901EA0166
:1000E800EB010800C234003400340034003400341A
:1000F8000034003400340034003400340034003458
:100108000034003400340034003400340034003447
:100118000034003400340034003400340034003437
:100128000034003400340034003400340034003427
:10013800003400342B3401342034013400340034CA
:10014800003400344B3401340034003400340034BB
:1001580000340034003400340034003400340034F7
:1001680000340034003400340034003400340034E7
:100178000034003400340034003400344830420184
:100188009F0090309D0006309E0001309B009C012E
:100198000030FA000030FB0081312B218031003023
:1001A800FA000030FB00813120218031F601F7018F
:1001B8000800813154218031803124208031803100
:1001C800C220803181313621803181314B2180310B
:1001D8008031F320803181311521803108000130D0
:1001E8004501900008308F009101FF308D008C018F
:1001F8000030FA000030FB008131632180314E016C
:100208009010803045018E000800F334003400342B
:1002180000340034003400340034633401340034D2
:1002280000344E010C100B140030FA000030FB00B3
:1002380081316821813108007A087B040319252956
:1002480026292A297B08F3007A08F20008007A0890
:100258007B0403193029312935297B08F5007A08F0
:10026800F40008009F3046018E008D018C01440186
:100278001E08FC3901389E00080000340A34103486
:1002880001340034643400341034013400344E0135
:1002980019100F1043018F01900192018D01080080
:1002A800623051018D008F0191010230930092015B
:1002B80008008031DD2081316029803114287B08D5
:1002C800F1007A08F00008007B08F9007A08F800C5
:0402D8000800080012
:020000040001F9
:0A000E008F3FFF3F9F3FFF3FFF3F82
:00000001FF
