:1000000080312828080008007E1480314E01161E19
:100010000A280B2813280C1E0E280F2813288031BD
:100020000320803126280B1F162817282628991E02
:100030001A281B2826288F1E1E281F282628410123
:100040003B088A003A080A00803126287E10090001
:1000500080312A28F03084002D3085000030FE00E9
:100060000230FF008F3119278031F001F101F201D8
:10007000F301F401F501A030840000308500313037
:10008000FE000030FF008F31192780317E104001C3
:100090008731B32F4001E8006808063E86008701DB
:1000A000403FD800413FD9006808023E86008701E2
:1000B0000108C300C4014308A0004408A10018308F
:1000C000A2000030A3008F31B32780314001210806
:1000D000B5002008B4008431052480314001350882
:1000E000E7003408E60066086704031D78287928CD
:1000F0007A28E42AE001E101752A03304001A200D8
:100100000030A3006108A1006008A0008F31B32770
:10011000803140012008580786002108593D87009A
:100120000108C300C4014308DE004408DF00643056
:10013000A6000030A7005F08A1005E08A0004208EA
:10014000C300C4014308A2004408A3008F31B327B1
:10015000803140012108A9002008A8008631AA2684
:10016000803140012608D3000330A2000030A300F4
:100170006108A1006008A0008F31B32780314001E1
:1001800020085807C3002108593DC40043088600D1
:100190004408870041310108C500C6014508DE005A
:1001A0004608DF006430A6000030A7005F08A10009
:1001B0005E08A0004208C300C4014308A20044082E
:1001C000A3008F31B327803140012108A900200806
:1001D000A8008631AA26803140012608D4000330C9
:1001E000A2000030A3006108A1006008A0008F31C8
:1001F000B3278031400120085807C3002108593D2A
:10020000C400430886004408870042310108C50045
:10021000C6014508DE004608DF006430A600003055
:10022000A7005F08A1005E08A0004208C300C40147
:100230004308A2004408A3008F31B3278031400156
:100240002108A9002008A8008631AA268031400193
:100250002608D5006808083E8600870101080319B2
:1002600032293329D229E201E30140016108A100CA
:100270006008A0001830A2000030A3008F31B3271F
:100280008031400162082007DA006308213DDB006D
:100290000130C3006208073C890A4F29C335890B26
:1002A0004E2943085305031D562957295C290A3056
:1002B000C7000030C80060291430C7000030C800F3
:1002C0005A086607C3005B08673DC4004308860000
:1002D00044088700470881000130C3006208073CDA
:1002E000890A7329C335890B722943085405031DF4
:1002F0007A297B2980290A30C9000030CA00842964
:100300001430C9000030CA005A086607C3005B08F1
:10031000673DC4004308083EC5000030443DC600A8
:100320004508860046088700490881000130C3005F
:100330006208073C890A9D29C335890B9C2943081B
:100340005505031DA429A529AA290A30CB00003090
:10035000CC00AE291430CB000030CC005A08660720
:10036000C3005B08673DC4004308103EC500003071
:10037000443DC60045088600460887004B088100BA
:100380000130E2070030E33D6308803AC30080306B
:100390004302031DCD2908306202031CD029D12954
:1003A0003529702AE401E50140016108A1006008D7
:1003B000A0001830A2000030A3008F31B327803195
:1003C000400164082007DC006508213DDD000130A4
:1003D000C3006408073C890AEE29C335890BED295F
:1003E00043085305031DF529F629FB290A30CD00E2
:1003F0000030CE00FF291430CD000030CE005C0864
:100400006607C3005D08673DC400430886004408D2
:1004100087004D0881000130C3006408073C890A49
:10042000122AC335890B112A43085405031D192AC2
:100430001A2A1F2A0A30CF000030D000232A143095
:10044000CF000030D0005C086607C3005D08673D40
:10045000C4004308083EC5000030443DC6004508BE
:100460008600460887004F0881000130C3006408F9
:10047000073C890A3C2AC335890B3B2A43085505AA
:10048000031D432A442A492A0A30D1000030D200F1
:100490004D2A1430D1000030D2005C086607C3003A
:1004A0005D08673DC4004308103EC5000030443D70
:1004B000C6004508860046088700510881000130C3
:1004C000E4070030E53D6508803AC3008030430210
:1004D000031D6C2A08306402031C6F2A702AD42979
:1004E00001304001E0070030E13D6808023E86002F
:1004F00087016108803AC30080304302031D822ACD
:1005000001086002031C852A862A7D2840016808AC
:10051000083E86008701010803198F2A902A912A34
:10052000D42AD601D701AD2A4001560866078600B5
:100530005708673D87000108C300C4014308A000B5
:100540004408A1008F317D278031803045018E0025
:1005500001304001D6070030D73D6808023E8600D2
:1005600087010108C300C4014308A0004408A1009A
:100570001830A2000030A3008F31B3278031400132
:100580005708803AC5002108803A4502031DCA2A4F
:1005900020085602031CCD2ACE2A942A7F3040011F
:1005A000C300430845018E0540016708A1006608A5
:1005B000A0008431C224803103304001C300F530F3
:1005C000890BE02AC30BE02A08004001B201B30105
:1005D000A801A901AC01AD0170087104031DF12A45
:1005E000F22AF52AA001A101042C7108B1007008BB
:1005F000B000792B3008860031088700403FA20008
:10060000413FA30021082306031D082B20082206D2
:10061000031D0B2B0C2B312B2C082D040319112B34
:10062000122B212B300886003108870042312C081C
:1006300084002D0885000231403F803F413F813FCB
:100640002A2B30088600310887004231403FF000F5
:10065000413FF1003008023EA0000030313DA100D2
:10066000042C3008860031088700403FA200413F3B
:10067000A30023082102031D3F2B22082002031898
:10068000422B432B6C2B320833040319482B492B84
:10069000642B3208860033088700403FA200413FA8
:1006A000A3003008860031088700403FA400413F86
:1006B000A50023082502031D5F2B22082402031C2A
:1006C000622B632B642B6C2B3108B3003008B20013
:1006D0002D08A9002C08A8003108AD003008AC0096
:1006E00030088600310887004231403FB000413F6A
:1006F000B10030083104031D7E2B7F2BFA2A32080B
:1007000033040319842B852BF22A32088600330820
:1007100087004231403FAE00413FAF0032088600C3
:1007200033088700403FA200413FA3002008220277
:10073000A4002108233BA500003025020530031941
:100740002402031CA42BA52BE62B320886003308B9
:100750008700403FA200413FA30020082202A400DE
:100760002108233BA5002408FE3EA600FF30253DBE
:10077000A70032088600330887002008C03F210800
:10078000C13F3208860033088700403F3207A2008D
:10079000413F333DA3002208023EAA000030233D22
:1007A000AB002A0886002B0887002608C03F2708D0
:1007B000C13F2A0886002B08870042312E08C03F1F
:1007C0002F08C13F2B08AF002A08AE00330871067E
:1007D000031DEC2B32087006031DEF2BF02BF52BBD
:1007E0002F08F1002E08F000FE2B280886002908AB
:1007F000870042312E08C03F2F08C13F3208023E19
:10080000A0000030333DA10008004001BC01BD0143
:1008100034083504031D0D2C0E2C122C0130B407A6
:100820000030B53D003035020230031934020318A0
:100830001A2C1B2C202C0230B4000030B500382CB0
:100840003508B7003408B600B609B70900303702DA
:1008500002300319360203182E2C2F2C382C0C30A2
:100860004101AC000030AD004001B401B501C12C24
:100870003508A1003408A0008231E522843140010E
:100880002108BF002008BE003E083F04031D492C7C
:100890004A2CBC2C41012A0828024001B600410123
:1008A0002B08293B4001B70035083702031D5A2C9D
:1008B0003408360203185D2C5E2C932C3408023E5B
:1008C000B8000030353DB900383087310A2784310F
:1008D00040012108C1002008C00040084104031D58
:1008E000722C732C742C342C4101290840014106D0
:1008F000031D7E2C41012808400140060319812C6C
:10090000822C892C41084101AB0040014008410183
:10091000AA004001380840074101A80040013908F9
:10092000413D4101A90041012B084001BF004101A7
:100930002A084001BE003F08BB003E08BA003A0842
:1009400086003B0887003408C03F3508C13F0230AD
:10095000BA070030BB3D3B08BF003A08BE00340870
:10096000023EB6000030353DB70036084101AA0707
:10097000400137084101AB3D40013F08B5003E084A
:10098000B400080040012108A7002008A6002008A4
:100990002104031DCC2CCD2CCE2C5F2D2608FE3E31
:1009A000A800FF30273DA900700871040319D92C55
:1009B000DA2C562D2808860029088700403F260794
:1009C000A200413F273DA30071082306031DEA2C26
:1009D00070082206031DED2CEE2C192D70088600E0
:1009E00071088700423128088400290885000231F7
:1009F000403F803F413F813F70088600710887007B
:100A0000403FA200413FA3002208023EA400003064
:100A1000233DA500280886002908870024088107AF
:100A200041312508813D7F312908F1002808F00077
:100A30005F2D7008860071088700403F7007A20094
:100A4000413F713DA3002208023EA4000030233D37
:100A5000A50029082506031D2F2D28082406031D9F
:100A6000322D332D4C2D2808860029088700403F61
:100A7000A200413FA3002208023EA4000030233D13
:100A8000A50070088600710887002408810741319D
:100A90002508813D7F315F2D2808860029088700C1
:100AA00042317008C03F7108C13F142D28088600EC
:100AB0002908870042310030C03FC13F142D080093
:100AC0007508F600F701F635F70DF030F8002D3017
:100AD000F9007608780786007708793D87000030AE
:100AE000C03FC13F42019D1C762D772D932D750887
:100AF000F600F701F635F70DF030F8002D30F9006B
:100B00007608780786007708793D8700011541014E
:100B10003208330403198D2D8E2D932D33088A004E
:100B200032080A00853142011D1D972D982DB42DE4
:100B30007508F600F701F635F70DF030F8002D30A6
:100B4000F9007608780786007708793D87008114D8
:100B50004101340835040319AE2DAF2DB42D3508ED
:100B60008A0034080A00853142011908FA00750824
:100B7000013E7F39FB007B087406031DC02DC12D8B
:100B8000C22DD42D7508703EF600F7012F30F73DC9
:100B900076088600770887007A0881007B08F500D0
:100BA0000130F6007608F30708004001B200320871
:100BB000023E8600870101082602031CE02DE12D7C
:100BC000E22D472E3208063E86008701403FB000E6
:100BD000413FB1002608AA00AB012A08A0002B085B
:100BE000A1000330A2000030A3008F31B32785316C
:100BF000400120083007AC002108313DAD002C0831
:100C000086002D088700280881002608AA00AB016D
:100C10002A08A0002B08A1000330A2000030A30086
:100C20008F31B3278531400120083007AC002108FF
:100C3000313DAD002C08013EAE0000302D3DAF002F
:100C40002E0886002F088700270881002608AA00A2
:100C5000AB012A08A0002B08A1000330A20000303D
:100C6000A3008F31B3278531400120083007AC0045
:100C70002108313DAD002C08023EAE0000302D3D74
:100C8000AF002E0886002F08870029088100080081
:100C90004001ED006D08023E860087010108E90071
:100CA000EA016908A0006A08A1000330A200003030
:100CB000A3008F31B327863140012108B5002008F9
:100CC000B40084310524863140013508EC00340835
:100CD000EB006B086C04031D6E2E6F2E712E00301E
:100CE000A92E6D08063E860087016B08C03F6C0880
:100CF000C13F6D08063E86008701403FA600413F88
:100D0000A7000030A800A9006D08023E86008701F8
:100D10000108E900EA016908A0006A08A10003309F
:100D2000A2000030A3008F31B32786314001210893
:100D3000AB002008AA008F319627863140016D084C
:100D400086008701433FC2006D0880314A2086310A
:100D5000013008004001AC01A71FAF2EB02EB72E06
:100D6000A609A709A60A0319A70AAC01AC0AA91F7C
:100D7000BA2EBB2EC42EA809A909A80A0319A90ACC
:100D80000130AA002A08AC06AD01AE0126082704EE
:100D90000319CB2ECC2EFB2EAB01AB0AD82E013083
:100DA000A635A70D890BD02E0130AA002A08AB0763
:100DB000A71FDB2EDC2ECF2E0130AD35AE0D890BFB
:100DC000DD2E27082902031DE72E26082802031C12
:100DD000EA2EEB2EF02E2608A8022708A93B2D1498
:100DE0000130A736A60C890BF12E0130AB02031D92
:100DF000FA2EFB2EDC2E2C080319FF2E002F052FB8
:100E0000AD09AE09AD0A0319AE0A2E08A7002D08D8
:100E1000A60008004001A200220886008701403F8A
:100E2000A300413FA400410126082704031D192FF8
:100E30001A2F1E2FF030A6002D30A70000304001E1
:100E400024020430031923020318272F282F2C2FE4
:100E50000430A3000030A400230841012602400111
:100E6000A50024084101273B4001A60020302602AE
:100E7000813003192502031C3E2F3F2F4D2F4101C6
:100E8000270840012602031D492F41012608400181
:100E90002502031C4C2F4D2F562F0C304101AC0066
:100EA0000030AD004001A001A101642F26084101DE
:100EB000A700400125084101A60027084001A10024
:100EC000410126084001A000080040019601970159
:100ED000980199019A01DF309100FE309200FF30B5
:100EE0009300FF30940007309500FF307E01B8007A
:100EF000FA30C300FF30CE00FF30D9000730E400E5
:100F0000B901C401CF01DA01E501BA01C501D0017F
:100F1000DB01E601FF30BB00FF30C600FF30D1002F
:100F2000FF30DC000730E700FF30BC00FF30C700B7
:100F3000FF30D200FF30DD000F30E8000A307D01C5
:100F4000CB0015307E0198000E309500BD01BE012A
:100F5000BF01C801C901CA01D301D401D501E9010A
:100F6000EA01EB0108008F31522787318B170B17ED
:100F70004101C801C9011930CA003230CB00D0018B
:100F8000C8308631482687314001EF01D62F6F08DF
:100F9000A600A701FF30A800A901BF308531D525E3
:100FA000873101304001EE006E08EF0741014A0829
:100FB00040016F02031CDD2FDE2FC72F8E31DF268D
:100FC000873141014B084001C200C83080314A20BE
:100FD0008731E12F80312828D3340F340034003496
:100FE0000034003400340034003400340034003461
:100FF0000034003400340034003400340034003451
:101000000034003400340034003400340034003440
:101010000034003400340034003400340034003430
:1010200043340F340034003425340F3434340F3457
:081030000034003400340034E8
:101DBE0045018E13080042011D121D160800400138
:101DCE0021084101B900400120084101B800080076
:101DDE00400121084101AF00400120084101AE0041
:101DEE000800603051018D0040308F0091010630A7
:101DFE00930092010800803047018E008D018C0106
:101E0E0044011F08F33904389F0008004E010C10DE
:101E1E000B1400304001A0000030A1008E31E626E8
:101E2E008F3108006400800101310130FE02003064
:101E3E00FF3B7F087E04031D1A2F0034400120084B
:101E4E00210403192B2F2C2F332F21084101B5000C
:101E5E00400120084101B40008004001200821047F
:101E6E0003193A2F3B2F422F21084101B3004001A5
:101E7E0020084101B2000800400120082104031986
:101E8E00492F4A2F512F21084101BB004001200844
:101E9E004101BA0008008E31F8268F31873165274F
:101EAE008F318F31D3278F318F3102278F318F3181
:101EBE0065278F318F310D278F3108000130450195
:101ECE00900008308F000930910009308D008C0190
:101EDE0000304001A0000030A1008E31EF268F317E
:101EEE004E019010803045018E00080040012108FF
:101EFE00A3002008A200A336A20CA336A20C22082F
:101F0E0047018D00400120080339A2000530A2359B
:101F1E00FF3E031D8E2F223547018C000800400125
:101F2E002708AD002608AC00A62F2C0886002D0829
:101F3E008700280881000130AC070030AD3D01302C
:101F4E00AA020030AB3B2A0A031DB12F2B0A031D38
:101F5E00B12FB22F9C2F08004001A401A501201C17
:101F6E00B92FBA2FBE2F2208A4072308A53D013092
:101F7E00A235A30D890BBF2F0130A136A00C890B02
:101F8E00C42F20082104031DCD2FCE2FB62F2508D8
:101F9E00A1002408A00008004E01991260304001F3
:101FAE00A0000530A1008F3143278F314830420108
:101FBE009F0090309D0006309E0044309B009C0197
:101FCE0002304001A0000030A1008F3125278F3153
:101FDE00E2304001A0000E30A1008F3134278F3146
:101FEE004101B601B701F501F401F3014E01991655
:101FFE00080000340034003400340034003400345F
:10200E000034003400340034003400340034003422
:10201E000034003400340034003400340034003412
:10202E000034003400340034003440340A341034A8
:10203E000134003464340034103401340034533429
:10204E0054344134523454345F344634413444347D
:10205E0045345F34533449344E3447344C3445346C
:10206E000034533454344F3450345F344634413496
:10207E00443445345F34533449344E3447344C344D
:10208E0045340034533454344134523454345F3470
:10209E0046344134443445345F3441344C344C344A
:1020AE0000345334453454345F344234523449345A
:1020BE004734483454344E34453453345334003456
:1020CE00533454344F3450345F34463441344434F2
:1020DE0045345F3441344C344C34003443344C3446
:1020EE004534413452345F34533449344E344734DA
:1020FE004C344534003465340F3400340034DF344E
:10210E000E3400340034EF340E34003400345334C3
:10211E00453454345F34533449344E3447344C349C
:10212E004534003443344C344534413452345F34F6
:10213E0041344C344C3400345334453454345F34CD
:10214E0041344C344C3400344434453449344E34E8
:0A215E004934543400342C340034AA
:020000040001F9
:0A000E00EC3E3F3F9F3FFF3FFF3FE6
:00000001FF
