:1000000080312828080008007E1480314E01161E19
:100010000A280B2813280C1E0E280F2813289631A7
:10002000EC26803126280B1F162817282628991E13
:100030001A281B2826288F1E1E281F282628410123
:1000400043088A0042080A00803126287E100900F1
:1000500080312A28F03084002D3085000030FE00E9
:100060000230FF0097312F278031F001F101F201BA
:10007000F301F401F5014001EB01EC01ED01EE01AA
:10008000EF01A0308400003085002E30FE000030EB
:10009000FF0097312F2780317E10400188316C2876
:1000A0004001E701E8014B08B0004A08AF00B23058
:1000B000B1009830B2008A31F82280314001300816
:1000C000D2002F08D1008E286808803ACE008030F8
:1000D0004E02031D6D280A306702031C7028712828
:1000E0007228942B40016735533E860087015108E2
:1000F000C03F5208C13F0130E7070030E83D003003
:10010000AF00B000B230B1009830B2008A31F822AE
:10011000803140013008D2002F08D100510852042C
:10012000031D9328942864285408A1005308A000B4
:10013000AD30A2009830A3008831F4208031400116
:1001400020082104031DA528A628F0286808AF0070
:100150006708AE000330B0000030B10088314A209B
:100160008031003A031DB528B628B728942B4001EA
:100170006E080319BC28BD28C728C63089318C21D8
:1001800080314001EE014101C501B601B7014101D5
:10019000C601C70140015608A7005508A6008C31CA
:1001A00041248031400126084101C800400158081F
:1001B000A7005708A6008C31412480314001260851
:1001C0004101C900CD01C6308D31BF258031003AD3
:1001D0000319EB28EC28852B4001EE01EE0A852B54
:1001E0005408A1005308A000AB30A2009830A3002F
:1001F0008831F4208031400120082104031D0129A9
:1002000002290F29C630883129208031C630893132
:100210008C2180314001EE014101C501852B54083C
:10022000A1005308A000A330A2009830A300883199
:10023000F4208031400120082104031D20292129B8
:1002400070296E0803192529262970296808AF002E
:100250006708AE000430B0000030B10088314A2099
:100260008031003A031D352936293729942B400166
:10027000CF0163294F08AD005608A7005508A60016
:100280008C314124803140012608AE005808A70077
:100290005708A6008C314124803140012608AF0068
:1002A0005A08A7005908A6008C314124803140012A
:1002B0002608B000C6308D313C2580310130400128
:1002C000CE004E08CF074101480840014F02031CF1
:1002D0006A296B293A29C630833195238031852BD1
:1002E0005408A1005308A0008430A2009830A30055
:1002F0008831F4208031400120082104031D812928
:100300008229CA296E08031986298729CA296808FB
:10031000AF006708AE000530B0000030B100883192
:100320004A208031003A031D962997299829942B59
:1003300040015608A7005508A6008C3141248031A1
:1003400040012608AD005808A7005708A6008C31C8
:100350004124803140012608AE005A08A700590800
:10036000A6008C314124803140012608AF005C0892
:10037000A7005B08A6008C3141248031400126088B
:10038000B000C6308D313C258031C6308331952395
:100390008031852B5408A1005308A0004E30A200E4
:1003A0009830A3008831F4208031400120082104D6
:1003B000031DDB29DC29032A6E080319E029E12942
:1003C000032A6808AF006708AE000230B0000030B2
:1003D000B10088314A208031003A031DF029F1290B
:1003E000F229942B40015608A7005508A6008C312D
:1003F00041248031400126084101C900C6308331C3
:1004000095238031852B5408A1005308A000993012
:10041000A2009830A3008831F420803140012008E8
:100420002104031D142A152A1F2A6E080319192AEC
:100430001A2A1F2AC630883129208031852B54087A
:10044000A1005308A0006B30A2009830A3008831AF
:10045000F4208031400120082104031D302A312A74
:100460005E2A6E080319352A362A5E2A6808AF000C
:100470006708AE000230B0000030B10088314A2079
:100480008031003A031D452A462A472A942B400111
:100490005608A7005508A6008C3141248031400140
:1004A0002608AD00AE01AF01B001C6308D313C254C
:1004B0008031C630833195238031852B5408A100CB
:1004C0005308A0003F30A2009830A3008831F420E8
:1004D0008031400120082104031D6F2A702ACC2A94
:1004E0006E080319742A752ACC2A6808AF006708B9
:1004F000AE000530B0000030B10088314A208031B4
:10050000003A031D842A852A862A942B4001D001B3
:10051000B22A5008AD005608A7005508A6008C3135
:100520004124803140012608AE005808A700570832
:10053000A6008C314124803140012608AF005A08C2
:10054000A7005908A6008C314124803140012608BB
:10055000B000C6308D313C25803101304001CE00E5
:100560004E08D0074101480840015002031CB92A37
:10057000BA2A892A5C08A7005B08A6008C314124AE
:100580008031400127084101B700400126084101A0
:10059000B600C501C50A852B5408A1005308A00068
:1005A0005D30A2009830A3008831F42080314001F2
:1005B00020082104031DDD2ADE2AE42A6E0803191F
:1005C000E22AE32AE42A0C295408A1005308A000D7
:1005D0001C30A2009830A3008831F4208031400103
:1005E00020082104031DF52AF62A4A2B6E08031958
:1005F000FA2AFB2A4A2B6808AF006708AE000630CB
:10060000B0000030B10088314A208031003A031D2B
:100610000A2B0B2B0C2B942B40015608A7005508D6
:10062000A6008C314124803140012608AD005808D5
:10063000A7005708A6008C314124803140012608CC
:10064000AE005A08A7005908A6008C314124803119
:1006500040012608AF005C08A7005B08A6008C31AB
:100660004124803140012608B000C6308D313C2540
:10067000803140015E08A7005D08A6008C3141244E
:100680008031400127084101B7004001260841019F
:10069000B600C92A5408A1005308A0002E30A200B9
:1006A0009830A3008831F4208031400120082104D3
:1006B000031D5B2B5C2B852B6E080319602B612BB4
:1006C000852B6808AF006708AE000230B00000302C
:1006D000B10088314A208031003A031D702B712B04
:1006E000722B942B40015608A7005508A6008C31A8
:1006F0004124803140012608AD00AE01AF01B001B8
:10070000C6308D313C258031852BF0304001A6006C
:100710002E30A7000030A800A9008030AA000030C9
:10072000AB0097318727803108004001C600C40123
:10073000112D0330A2000030A3004408AF00B00127
:100740002F08A0003008A1009731E0278331400135
:100750004608053E86008701403FB100413FB20098
:100760002008310786002108323D87000108B300C8
:10077000B4013308C2003408C3006430A60000305E
:10078000A7004308A1004208A0004608033E8600D7
:1007900087010108AF00B0012F08A2003008A300B4
:1007A0009731E027833140012108A9002008A800E3
:1007B0008731A027833140012608B7000330A2000B
:1007C0000030A3004408AF00B0012F08A00030089B
:1007D000A1009731E027833140014608053E86009D
:1007E0008701403FB100413FB20020083107B3000C
:1007F0002108323DB40033088600340887004131B7
:100800000108B500B6013508C2003608C3006430DF
:10081000A6000030A7004308A1004208A000460837
:10082000033E860087010108AF00B0012F08A20037
:100830003008A3009731E027833140012108A90047
:100840002008A8008731A027833140012608B8007E
:100850000330A2000030A3004408AF00B0012F080D
:10086000A0003008A1009731E027833140014608FD
:10087000053E86008701403FB100413FB20020089D
:100880003107B3002108323DB40033088600340834
:10089000870042310108B500B6013508C2003608AC
:1008A000C3006430A6000030A7004308A10042083E
:1008B000A0004608033E860087010108AF00B00192
:1008C0002F08A2003008A3009731E02783314001B0
:1008D0002108A9002008A8008731A0278331400102
:1008E0002608B900C5014508AF00B0014408B100B1
:1008F000B2013108A0003208A1001830A200003077
:10090000A3009731E027833140012F082007C00062
:100910003008213DC1000130AF004508073C890A7D
:10092000922CAF35890B912C2F083705031D992C7C
:100930009A2C9F2C0430BA000030BB00A32C0E3040
:10094000BA000030BB0040086B07AF0041086C3DA7
:10095000B0002F088600300887003A088100013077
:10096000AF004508073C890AB62CAF35890BB52C7A
:100970002F083805031DBD2CBE2CC32C0430BC0031
:100980000030BD00C72C0E30BC000030BD00400858
:100990006B07AF0041086C3DB0002F08083EB10066
:1009A0000030303DB20031088600320887003C0834
:1009B00081000130AF004508073C890AE02CAF35C3
:1009C000890BDF2C2F083905031DE72CE82CED2CB3
:1009D0000430BE000030BF00F12C0E30BE000030ED
:1009E000BF0040086B07AF0041086C3DB0002F0806
:1009F000103EB1000030303DB200310886003208B0
:100A000087003E0881000130AF002F08C50708307D
:100A10004502031C0C2D0D2D732C0130AF002F0847
:100A2000C4074608023E8600870101084402031CF1
:100A30001A2D1B2D992B6C08A7006B08A6004608E1
:100A4000023E860087010108AF00B0012F08A00018
:100A50003008A1001830A2000030A3009731E02731
:100A6000833140012108A9002008A800883108200E
:100A7000833103304001AF00F530890B3D2DAF0BC2
:100A80003D2D08004001C700C501B22E0330A20071
:100A90000030A3004508B000B1013008A0003108C3
:100AA000A1009731E027853140014708053E8600C7
:100AB0008701403FB200413FB30020083207860063
:100AC0002108333D87000108B400B5013408C30094
:100AD0003508C4006430A6000030A7004408A10017
:100AE0004308A0002F08B000B1013008A20031086F
:100AF000A3009731E027853140012108A900200893
:100B0000A8008731A027853140012608B8000330AE
:100B1000A2000030A3004508B000B1013008A000D9
:100B20003108A1009731E027853140014708053E93
:100B300086008701403FB200413FB30020083207E2
:100B4000B4002108333DB50034088600350887001D
:100B500041310108B600B7013608C3003708C400A8
:100B60006430A6000030A7004408A1004308A0009C
:100B70002F08B000B1013008A2003108A30097315E
:100B8000E027853140012108A9002008A80087310D
:100B9000A027853140012608B9000330A2000030AB
:100BA000A3004508B000B1013008A0003108A10041
:100BB0009731E027853140014708053E86008701CF
:100BC000403FB200413FB30020083207B400210883
:100BD000333DB500340886003508870042310108EE
:100BE000B600B7013608C3003708C4006430A60059
:100BF0000030A7004408A1004308A0002F08B0005F
:100C0000B1013008A2003108A3009731E0278531F7
:100C100040012108A9002008A8008731A0278531BC
:100C200040012608BA00C6014608B000B1014508D7
:100C3000B200B3013208A0003308A1001830A200AE
:100C40000030A3009731E0278531400130082007AC
:100C5000C1003108213DC2000130B0004608073C08
:100C6000890A332EB035890B322E30083805031D22
:100C70003A2E3B2E402E0430BB000030BC00442EE8
:100C80000E30BB000030BC0041086B07B0004208CA
:100C90006C3DB10030088600310887003B088100B8
:100CA0000130B0004608073C890A572EB035890B41
:100CB000562E30083905031D5E2E5F2E642E04303B
:100CC000BD000030BE00682E0E30BD000030BE00FA
:100CD00041086B07B00042086C3DB1003008083E87
:100CE000B2000030313DB30032088600330887007F
:100CF0003D0881000130B0004608073C890A812E7A
:100D0000B035890B802E30083A05031D882E892EB8
:100D10008E2E0430BF000030C000922E0E30BF0077
:100D20000030C00041086B07B00042086C3DB100C4
:100D30003008103EB2000030313DB300320886006A
:100D4000330887003F0881000130B0003008C60733
:100D500008304602031CAD2EAE2E142E0130B0001A
:100D60003008C5074708023E860087010108450292
:100D7000031CBB2EBC2E462D6C08A7006B08A600DA
:100D80004708023E860087010108B000B101300823
:100D9000A0003108A1001830A2000030A300973154
:100DA000E027853140012108A9002008A8008831EA
:100DB0000820853103304001B000F530890BDE2E6C
:100DC000B00BDE2E08004001BC01BD013408350423
:100DD000031DEB2EEC2EF02E0130B4070030B53D94
:100DE000003035020230031934020318F82EF92EB0
:100DF000FE2E0230B4000030B500162F3508B700C3
:100E00003408B600B609B7090030370202300319BA
:100E1000360203180C2F0D2F162F0C304101B40091
:100E20000030B5004001B401B5019F2F3508A10085
:100E30003408A0008E31E026863140012108BF0031
:100E40002008BE003E083F04031D272F282F9A2F9D
:100E50004101320830024001B60041013308313B04
:100E60004001B70035083702031D382F3408360219
:100E700003183B2F3C2F712F3408023EB80000307E
:100E8000353DB90038308A313F2286314001210892
:100E9000C1002008C00040084104031D502F512FFD
:100EA000522F122F4101310840014106031D5C2FD2
:100EB000410130084001400603195F2F602F672F62
:100EC00041084101B300400140084101B200400126
:100ED000380840074101B00040013908413D410157
:100EE000B100410133084001BF0041013208400117
:100EF000BE003F08BB003E08BA003A0886003B0827
:100F000087003408C03F3508C13F0230BA070030BF
:100F1000BB3D3B08BF003A08BE003408023EB600A5
:100F20000030353DB70036084101B20740013708AF
:100F30004101B33D40013F08B5003E08B400080040
:100F40004001AC01A71FA52FA62FAD2FA609A70909
:100F5000A60A0319A70AAC01AC0AA91FB02FB12F2A
:100F6000BA2FA809A909A80A0319A90A0130AA00D9
:100F70002A08AC06AD01AE01260827040319C12FCB
:100F8000C22FF12FAB01AB0ACE2F0130A635A70D32
:100F9000890BC62F0130AA002A08AB07A71FD12F43
:100FA000D22FC52F0130AD35AE0D890BD32F2708B9
:100FB0002902031DDD2F26082802031CE02FE12F44
:100FC000E62F2608A8022708A93B2D140130A736D2
:100FD000A60C890BE72F0130AB02031DF02FF12F78
:100FE000D22F2C080319F52FF62FFB2FAD09AE09D0
:100FF000AD0A0319AE0A2E08A7002D08A6000800A6
:1010080042011D121D16080040012708AB002608E2
:10101800AA002908AD002808AC0022282A08860062
:101028002B088700010843018C0001304001AA0702
:101038000030AB3D0130AC020030AD3B2C082D0434
:10104800031D27282828122808004001C900C801C4
:101058003B284808AD00AE01AF01B00149088D3109
:101068003C25883101304001C7004708C8074908B6
:10107800023E8600870101084802031C44284528CF
:101088002D284908833195238831080040012F080D
:10109800803AB2003108803A3202031D55283008E0
:1010A8002E020318582859286A28F0304001A60053
:1010B8002E30A7000030A800A9008030AA00003018
:1010C800AB0097318727883100306B280130080042
:1010D8009731772788318B170B1751018C174101EE
:1010E80046084001A6008B315B2388314101450841
:1010F80003197F2880288C2837084001C90041013E
:1011080036084001C800C6308C31BE2488318E288C
:10111800630000008931FC2188317A288031282831
:101128004E019912CB304001A0000B30A10097313D
:1011380068278831483042019F0090309D00063072
:101148009E0044309B009C0102304001A00000300A
:10115800A10097314A27883104304001A0000830A7
:10116800A1009731592788314101BC01BD01F50122
:10117800F4014001EF014E01991608007408703E11
:10118800860087012F30873D01084001A5007408BB
:10119800013E7F39A4002408F4007408A000A101CE
:1011A800A035A10DF030A2002D30A30020082207A1
:1011B80086002108233D8700403F4101BC00413F94
:1011C800BD004E01991240016F080319EC28ED2863
:1011D800EF280130EF024E0199164001250808005A
:1011E800FD280130A0070030A13D0130A2070030E2
:1011F800A33D400122088400230885000008A400BC
:10120800200886002108870001082406031D0D29EF
:101218000E29172920088600210887000108031DC8
:1012280016291729F5282008860021088700220892
:1012380084002308850000080102A000A101031C06
:10124800A10308004001AD01AE0132290130A70712
:101258000030A83D0130AD070030AE3D27088600BC
:1012680028088700010803193A293B2954292A0824
:10127800A1002908A000270886002808870001087F
:10128800AB00AC012B08A2002C08A3009731C127A2
:1012980089314001200821040319532954292A2996
:1012A8002E08A8002D08A70008004001AD01AE01D6
:1012B80065290130A7070030A83D0130AD0700308F
:1012C800AE3D2708860028088700010803196D2904
:1012D8006E2987292A08A1002908A0002708860066
:1012E800280887000108AB00AC012B08A2002C08D5
:1012F800A3009731C1278931400120082104031D2B
:10130800862987295D292E08A8002D08A70008002E
:101318004001AA002A08053E86008701403FA00038
:10132800413FA1008E314226893140016C08A1005D
:101338006B08A0008E314226893140012A08053EFB
:10134800860087010030C03FC13F2A088600870118
:101358000030C03FC13F2A08023E86008701810154
:101368002A08033E8600870181012A08073E860075
:101378008701810108004001A601A7012008210476
:101388000319C729C829F729A501A50AD4290130B5
:10139800A035A10D890BCC290130A4002408A5078C
:1013A800A11FD729D829CB290130A635A70D890B2C
:1013B800D92921082302031DE32920082202031C3E
:1013C800E629E729EC292008A2022108A33B2614D4
:1013D8000130A136A00C890BED290130A502031DAF
:1013E800F629F729D8292708A1002608A00008000F
:1013F800362A8831C22089314101C40040016D0874
:10140800F03EE900EA012E30EA3D690886006A08E4
:10141800870041014408810001304001E900690862
:10142800ED0781306D02031C1A2A1B2A1C2AED01C4
:101438000A3041014406031D222A232A362AF030A5
:101448004001CA002E30CB006D08E900EA016908A6
:10145800CC006A08CD008031502089314001ED016F
:101468004101C4019631F5268931003A031D3D2A10
:101478003E2AFD2908004001A200220886008701B3
:10148800403FA300413FA40041012E082F04031D43
:101498004E2A4F2A532AF030AE002D30AF000030CC
:1014A8004001240204300319230203185C2A5D2A30
:1014B800612A0430A3000030A400230841012E0251
:1014C8004001A500240841012F3B4001A60020301F
:1014D8002602803003192502031C732A742A822AE3
:1014E80041012F0840012602031D7E2A41012E08D2
:1014F80040012502031C812A822A8B2A0C304101D3
:10150800B4000030B5004001A001A101992A2608C5
:101518004101AF00400125084101AE002F084001FC
:10152800A10041012E084001A000080040019601D9
:101538009701980199019A01FF309100F4309200C7
:10154800FF309300FF30940007309500FF307E0194
:10155800B800F230C300FF30CE00FF30D9000730AA
:10156800E400B901C401CF01DA01E501BA01C501FE
:10157800D001DB01E601FF30BB00F730C600FF30C9
:10158800D100FF30DC000730E700FF30BC00F73047
:10159800C700FF30D200FF30DD000F30E8000A300E
:1015A8007D01CB0015307E01980009307D01A10036
:1015B80009307E019900BD01BE01BF010430C80099
:1015C8000430C900CA01D301D401D501E901EA01F7
:1015D800EB0103304001A0000030A100973107273C
:1015E8008A314E011616080040012F083004031DE9
:1015F800FE2AFF2A102B41012D084001B0004101AD
:101608002C084001AF002F083004031D0C2B0D2BB4
:10161800102BAF01B0015A2B3008A8002F08A700E3
:101628003208AA003108A900893159218A314001BC
:101638002708AF072808B03D2F0886003008870024
:101648000108031D282B292B302B4101AC01AD01CA
:101658004001AF01B0015A2B3008A8002F08A7009D
:101668003208AA003108A900893126218A314001AF
:1016780027082F074101AC0040012808303D4101EF
:10168800AD002C0886002D088700010803194D2B92
:101698004E2B582B2C0886002D088700810101301D
:1016A800AC070030AD3D5A2BAC01AD010800430139
:1016B800901A5F2B602BCA2B40012608A700A801AF
:1016C8002708A0002808A1000530A2000030A300C8
:1016D8009731E0278B318F30400120078400183084
:1016E800213D80388500000843018F00400126080D
:1016F800A700A8012708A0002808A1000530A2001B
:101708000030A3009731E0278B319030400120074B
:1017180084001830213D803885000008430190007E
:1017280040012608A700A8012708A0002808A10052
:101738000530A2000030A3009731E0278B319130AB
:101748004001200784001830213D803885000008BA
:101758004301920040012608A700A8012708A0001D
:101768002808A1000530A2000030A3009731E02727
:101778008B3192304001200784001830213D803899
:101788008500000843018D009016CA2B08007508D3
:10179800F600F701F635F70DF030F8002D30F900B6
:1017A8007608780786007708793D87000030C03FC3
:1017B800C13F42019D1CE12BE22BFE2B7508F60070
:1017C800F701F635F70DF030F8002D30F9007608FE
:1017D800780786007708793D8700011541013808A8
:1017E80039040319F82BF92BFE2B39088A0038081D
:1017F8000A008B3142011D1D022C032C1F2C750879
:10180800F600F701F635F70DF030F8002D30F90045
:101818007608780786007708793D870081144101AA
:101828003A083B040319192C1A2C1F2C3B088A0070
:101838003A080A008C3142011908FA007508013E7D
:101848007F39FB007B087406031D2B2C2C2C2D2CB8
:10185800402C7508703EF600F7012F30F73D7608EA
:101868008600770887007A0881007B08F500013038
:10187800F60076084001EF0708004001AB01AC0113
:10188800AA014A2C0130A6070030A73D2608860089
:1018980027088700203001060319532C542C462CA6
:1018A8002608860027088700F7300107A8000530BA
:1018B8002802031C602C612C462C26088600270869
:1018C80087002D300106031D6A2C6B2C722CAA018F
:1018D800AA0A0130A6070030A73D9B2C26088600DF
:1018E800270887002B300106031D7B2C7C2C9B2CA2
:1018F8006D2C26088600270887002C08A1002B08D5
:10190800A0000A30A2000030A3009731E0278C31F4
:1019180040012108A90001082002A800031CA9030E
:101928002808303EAB000030293DAC006D2C26085D
:10193800860027088700D0300107A8000A3028024F
:10194800031CA72CA82C7D2C2A08031DAC2CAD2C1D
:10195800B92C2B09A8002C09A900A80A0319A90A5F
:101968002808A6002908A700BD2C2C08A7002B08CA
:10197800A60008004001D4005408033E86008701F1
:101988000108CA00CB014B084902031DCD2C4A08A7
:1019980048020318D02CD12CD22C3B2D5408033EDE
:1019A800860087010108CA00CB014A08A0004B083D
:1019B800A1004908A3004808A2008931BF218C3141
:1019C80040012008CC002108CD00CD36CC0C4C08B5
:1019D800CE004D08CF005408033E86008701010859
:1019E800CA00CB014A08D2004B08D300D31FFD2CF4
:1019F800FE2CFF2C132D5208AF00540885314225C8
:101A08008C3140014F08A1004E08A0009731A4274F
:101A18008C31FE304001D207FF30D33DFA2CD00183
:101A2800D1012A2D40015008AF00540885314225C4
:101A38008C3140014F08A1004E08A0009731A4271F
:101A48008C3102304001D0070030D13D5408033EAC
:101A5800860087015108803ACA0080304A02031D77
:101A6800372D01085002031C3A2D3B2D162D080076
:101A78004001B9003908023E8600870101082D029D
:101A8800031C472D482D492DBE2D2D08B100B2014C
:101A98003108A0003208A1000330A2000030A300E2
:101AA8009731E0278D3140013908053E86008701CE
:101AB800403FB300413FB40020083307B500210878
:101AC800343DB60035088600360887002F088100A7
:101AD8002D08B100B2013108A0003208A10003307E
:101AE800A2000030A3009731E0278D31400139086A
:101AF800053E86008701403FB300413FB4002008FF
:101B08003307B5002108343DB6003508013EB7005B
:101B18000030363DB80037088600380887002E08A0
:101B280081002D08B100B2013108A0003208A100DF
:101B38000330A2000030A3009731E0278D31400127
:101B48003908053E86008701403FB300413FB40095
:101B580020083307B5002108343DB6003508023E99
:101B6800B7000030363DB8003708860038088700CF
:101B78003008810008004001C9004908023E86007B
:101B880087010108C700C8014708A0004808A1004C
:101B98000330A2000030A3009731E0278D314001C7
:101BA8002108B5002008B4008631E3268D314001B4
:101BB8004908053E860087013408C03F3508C13F03
:101BC8004908053E8600870116000104031DED2D16
:101BD800EE2DF02D0030412E4908023E8600870187
:101BE8000108C700C8014708A0004808A10018302C
:101BF800A2000030A3009731E0278D314001210871
:101C0800B5002008B4008631E3268D31400135083F
:101C1800EC003408EB006B086C04031D142E152E21
:101C2800162EEE2D4908053E86008701403FA60086
:101C3800413FA7000030A800A9004908023E8600DD
:101C480087010108C700C8014708A0004808A1008B
:101C58000330A2000030A3009731E0278D31400106
:101C68002108AB002008AA00973187278D31400151
:101C78004908833195238D3101300800400121083E
:101C8800A7002008A60020082104031D4C2E4D2E75
:101C98004E2EDF2E2608FE3EA800FF30273DA90065
:101CA800700871040319592E5A2ED62E280886005A
:101CB80029088700403F2607A200413F273DA3008F
:101CC80071082306031D6A2E70082206031D6D2E57
:101CD8006E2E992E700886007108870042312808F8
:101CE8008400290885000231403F803F413F813F01
:101CF8007008860071088700403FA200413FA3009A
:101D08002208023EA4000030233DA50028088600D2
:101D1800290887002408810741312508813D7F3142
:101D28002908F1002808F000DF2E700886007108E5
:101D38008700403F7007A200413F713DA300220881
:101D4800023EA4000030233DA50029082506031DF6
:101D5800AF2E28082406031DB22EB32ECC2E280839
:101D6800860029088700403FA200413FA3002208BF
:101D7800023EA4000030233DA500700886007108CB
:101D880087002408810741312508813D7F31DF2EF6
:101D9800280886002908870042317008C03F71086A
:101DA800C13F942E28088600290887004231003058
:101DB800C03FC13F942E08004001B201B301A80101
:101DC800A901AC01AD0170087104031DEC2EED2EC4
:101DD800F02EA001A101FF2F7108B1007008B0001A
:101DE800742F3008860031088700403FA200413F29
:101DF800A30021082306031D032F20082206031D24
:101E0800062F072F2C2F2C082D0403190C2F0D2F0C
:101E18001C2F300886003108870042312C088400C6
:101E28002D0885000231403F803F413F813F252FEB
:101E380030088600310887004231403FF000413FBA
:101E4800F1003008023EA0000030313DA100FF2F14
:101E58003008860031088700403FA200413FA300B8
:101E680023082102031D3A2F2208200203183D2FC0
:101E78003E2F672F320833040319432F442F5F2F57
:101E88003208860033088700403FA200413FA30084
:101E98003008860031088700403FA400413FA50074
:101EA80023082502031D5A2F22082402031C5D2F34
:101EB8005E2F5F2F672F3108B3003008B2002D085E
:101EC800A9002C08A8003108AD003008AC00300883
:101ED8008600310887004231403FB000413FB100E1
:101EE80030083104031D792F7A2FF52E3208330478
:101EF80003197F2F802FED2E3208860033088700C4
:101F08004231403FAE00413FAF00320886003308FF
:101F18008700403FA200413FA30020082202A400FE
:101F28002108233BA50000302502053003192402AF
:101F3800031C9F2FA02FE12F32088600330887004B
:101F4800403FA200413FA30020082202A40021082C
:101F5800233BA5002408FE3EA600FF30253DA70030
:101F680032088600330887002008C03F2108C13F97
:101F78003208860033088700403F3207A200413FFD
:101F8800333DA3002208023EAA000030233DAB00E7
:101F98002A0886002B0887002608C03F2708C13F6B
:101FA8002A0886002B08870042312E08C03F2F08D8
:101FB800C13F2B08AF002A08AE0033087106031D85
:101FC800E72F32087006031DEA2FEB2FF02F2F089A
:101FD800F1002E08F000F92F28088600290887004C
:101FE80042312E08C03F2F08C13F3208023EA000F0
:101FF8000030333DA1000800943408340034003424
:10200800C234083400340034F53416340034003453
:102018000034003400340034003400340034003418
:102028000034003400340034003400340034003408
:1020380000340034003400340034003400340034F8
:1020480068341734003400344A3417345934173498
:082058000034003400340034B0
:102DD8007E014A1DF02EF12EF42E97313B279631B5
:102DE800080040016F08031DFA2EFC2E0130FD2E4D
:102DF80000300800400121084101C10040012008BD
:102E08004101C0000800400121084101CF004001F4
:102E180020084101CE0008004E0119100F1043018F
:102E28008F01900192018D010800603051018D00E1
:102E38008F014030910006309300920108004E0146
:102E48000C100B1400304001A0000030A100963196
:102E5800FE26973108006400800101310130FE022E
:102E68000030FF3B7F087E04031D302F00344101F2
:102E78004E084F040319412F422F472F4F088A004D
:102E88004E080A0097317E014A11080040012008C7
:102E980021040319502F512F582F21084101BB003D
:102EA800400120084101BA0008004001200821041F
:102EB80003195F2F602F672F21084101B9004001D6
:102EC80020084101B8000800400120082104031926
:102ED8006E2F6F2F762F21084101C3004001200873
:102EE8004101C20008009731192797318A319A2287
:102EF800973188319420973197311027973197313E
:102F080023279731080040012708AD002608AC00A8
:102F1800972F2C0886002D0887002808810001308B
:102F2800AC070030AD3D0130AA020030AB3B2A0AA5
:102F3800031DA22F2B0A031DA22FA32F8D2F0800DC
:102F48004001A301A401B62F0B304001A20062305A
:102F5800890BAC2FA20BAC2F000001304001A30756
:102F68000030A43D21082402031DBC2F20082302A1
:102F7800031CBF2FC02FA82F080040012008840081
:102F88002108850000082206031DCB2FCC2FCD2F4A
:102F9800DF2F2108A5002008A400A00A0319A10A10
:102FA80024088400250885001200031DDC2FDD2F6E
:102FB800C12FA001A10108004001A401A501201C06
:102FC800E62FE72FEB2F2208A4072308A53D0130A1
:102FD800A235A30D890BEC2F0130A136A00C890B6B
:102FE800F12F20082104031DFA2FFB2FE32F2508BA
:102FF800A1002408A000080010341734003400345D
:103008005B340B34003400340034003400340034B2
:1030180008340834003400340034003400340034F8
:1030280000340034003400340034003400340034F8
:10303800533454344134523454345F344634413474
:10304800443445345F34533449344E3447344C3473
:1030580045340034533454344F3450345F34463498
:103068004134443445345F34533449344E3447345E
:103078004C34453400345334543441345234543489
:103088005F3446344134443445345F3441344C343D
:103098004C3400345334453454345F34423452345D
:1030A80049344734483454344E3445345334533413
:1030B8000034533454344F3450345F34463441343C
:1030C800443445345F3441344C344C340034433454
:1030D8004C344534413452345F34533449344E34DB
:1030E80047344C3445340034003400340034003460
:1030F8000034003400340034003400340034003428
:103108005334453454345F34533449344E3447349B
:103118004C344534003440340A341034013400341B
:103128006434003410340134003443344C344534AE
:10313800413452345F3441344C344C3400345334C9
:10314800453454345F3441344C344C3400344434C2
:10315800453449344E344934543400342C34003422
:020000040001F9
:0A000E008C3F3F3F9F3FFF3FFF3F45
:00000001FF
