:1000000080312828080008007E1480314E01161E19
:100010000A280B2813280C1E0E280F2813289531A8
:100020000E25803126280B1F162817282628991EF2
:100030001A281B2826288F1E1E281F282628410123
:1000400043088A0042080A00803126287E100900F1
:1000500080312A28F03084002D3085000030FE00E9
:100060000230FF00953152258031F001F101F2019B
:10007000F301F401F5014001EB01EC01ED01EE01AA
:10008000EF01A0308400003085002E30FE000030EB
:10009000FF009531522580317E1040019631772E38
:1000A0004101E601E70140016508B0006408AF00C6
:1000B000E230B1009830B2008931402180314001F6
:1000C00030084101D10040012F084101D00098289B
:1000D0006708803A4001E80080306802031D7328F9
:1000E0000A3041016602031C762877287828322CD2
:1000F00041016635D23E860087015008C03F510855
:10010000C13F0130E6070030E73D00304001AF005D
:10011000B000E230B1009830B20089314021803126
:10012000400130084101D10040012F084101D000B9
:1001300050085104031D9D289E286828530840013B
:10014000A100410152084001A000DD30A20098301A
:10015000A3009631F8268031400120082104031DB8
:10016000B228B3280529410167084001AF004101C9
:1001700066084001AE000330B0000030B1008831A5
:1001800005208031003A031DC628C728C828322C14
:1001900040016E080319CD28CE28D828C6309731E3
:1001A000902780314001EE014101C501B601B70140
:1001B0004101C601C70155084001A700410154088B
:1001C0004001A6008A3119228031400126084101F0
:1001D000C80057084001A700410156084001A60089
:1001E0008A3119228031400126084101C900CD0120
:1001F000C6308B3197238031003A03190029012939
:10020000232C4001EE01EE0A232C4101530840014A
:10021000A100410152084001A000DB30A20098304B
:10022000A3009631F8268031400120082104031DE7
:100230001A291B292829C630963156268031C63006
:100240009731902780314001EE014101C501232CF7
:10025000410153084001A100410152084001A000A2
:10026000D330A2009830A3009631F82680314001A7
:1002700020082104031D3D293E299D296E080319EC
:10028000422943299D29410167084001AF004101EE
:1002900066084001AE000430B0000030B100883183
:1002A00005208031003A031D562957295829322C40
:1002B0004101CE0192294E084001AD00410155088F
:1002C0004001A700410154084001A6008A311922CB
:1002D000803140012608AE00410157084001A700C7
:1002E000410156084001A6008A311922803140019F
:1002F0002608AF00410159084001A70041015808F4
:100300004001A6008A311922803140012608B00040
:10031000C6308B311423803101304001E800680879
:100320004101CE0748084E02031C972998295B29F2
:10033000C6308C311A248031232C410153084001EE
:10034000A100410152084001A000B430A200983041
:10035000A3009631F8268031400120082104031DB6
:10036000B229B3290E2A6E080319B729B8290E2A13
:10037000410167084001AF00410166084001AE003D
:100380000530B0000030B100883105208031003ADE
:10039000031DCB29CC29CD29322C41015508400120
:1003A000A700410154084001A6008A31192280317A
:1003B00040012608AD00410157084001A700410156
:1003C00056084001A6008A311922803140012608D2
:1003D000AE00410159084001A70041015808400101
:1003E000A6008A311922803140012608AF00410160
:1003F0005B084001A70041015A084001A6008A316C
:100400001922803140012608B000C6308B311423F8
:100410008031C630843133248031232C410153088C
:100420004001A100410152084001A0007E30A2001D
:100430009830A3009631F82680314001200821042D
:10044000031D232A242A522A6E080319282A292A3E
:10045000522A410167084001AF004101660840018E
:10046000AE000230B0000030B1008831052080318C
:10047000003A031D3C2A3D2A3E2A322C41015508F0
:100480004001A700410154084001A6008A31192209
:100490008031400126084101C900C630843133242F
:1004A0008031232C410153084001A1004101520831
:1004B0004001A000C930A2009830A3009631F82670
:1004C0008031400120082104031D672A682A722A0E
:1004D0006E0803196C2A6D2A722AC6309631562688
:1004E0008031232C410153084001A10041015208F1
:1004F0004001A0009B30A2009830A3009631F8265E
:100500008031400120082104031D872A882ABC2A43
:100510006E0803198C2A8D2ABC2A41016708400104
:10052000AF00410166084001AE000230B00000306B
:10053000B100883105208031003A031DA02AA12A8C
:10054000A22A322C410155084001A700410154085C
:100550004001A6008A311922803140012608AD00F1
:10056000AE01AF01B001C6308B3114238031C630EB
:10057000843133248031232C410153084001A100F0
:10058000410152084001A0006F30A2009830A30042
:100590009631F8268031400120082104031DD12A1C
:1005A000D22A412B6E080319D62AD72A412B4101A2
:1005B00067084001AF00410166084001AE00053008
:1005C000B0000030B100883105208031003A031DB1
:1005D000EA2AEB2AEC2A322C4101CF01262B4F08C4
:1005E0004001AD00410155084001A70041015408F8
:1005F0004001A6008A311922803140012608AE0050
:10060000410157084001A700410156084001A600DA
:100610008A311922803140012608AF004101590872
:100620004001A700410158084001A6008A31192263
:10063000803140012608B000C6308B311423803150
:1006400001304001E80068084101CF0748084F0227
:10065000031C2B2B2C2BEF2A5B084001A700410128
:100660005A084001A6008A3119228031400127082A
:100670004101B700400126084101B600C501C50A85
:10068000232C410153084001A100410152084001BF
:10069000A0008D30A2009830A3009631F82680315A
:1006A000400120082104031D562B572B5D2B6E089B
:1006B00003195B2B5C2B5D2B25294101530840015D
:1006C000A100410152084001A0004C30A200983026
:1006D000A3009631F8268031400120082104031D33
:1006E000722B732BDD2B6E080319772B782BDD2BE8
:1006F000410167084001AF00410166084001AE00BA
:100700000630B0000030B100883105208031003A59
:10071000031D8B2B8C2B8D2B322C41015508400156
:10072000A700410154084001A6008A3119228031F6
:1007300040012608AD00410157084001A7004101D2
:1007400056084001A6008A3119228031400126084E
:10075000AE00410159084001A7004101580840017D
:10076000A6008A311922803140012608AF004101DC
:100770005B084001A70041015A084001A6008A31E8
:100780001922803140012608B000C6308B31142375
:10079000803141015D084001A70041015C08400132
:1007A000A6008A3119228031400127084101B70093
:1007B000400126084101B6003E2B4101530840018B
:1007C000A100410152084001A0005E30A200983013
:1007D000A3009631F8268031400120082104031D32
:1007E000F22BF32B232C6E080319F72BF82B232C59
:1007F000410167084001AF00410166084001AE00B9
:100800000230B0000030B100883105208031003A5C
:10081000031D0B2C0C2C0D2C322C410155084001D2
:10082000A700410154084001A6008A3119228031F5
:1008300040012608AD00AE01AF01B001C6308B31DA
:1008400014238031232CF0304001A6002E30A70065
:100850000030A800A9008030AA000030AB0095311C
:10086000DD25803108004001C800C601AF2D0330EE
:10087000A2000030A3004608AF00B0012F08A0007E
:100880003008A10096313626843140014808053EE3
:1008900086008701403FB100413FB2002008310788
:1008A00086002108323D87000108B300B4013308F7
:1008B000C4003408C5006430A6000030A700450815
:1008C000A1004408A0004808033E860087010108F3
:1008D000AF00B0012F08A2003008A30096313626E1
:1008E000843140012108A9002008A8008831E020B7
:1008F000843140012608B7000330A2000030A30075
:100900004608AF00B0012F08A0003008A1009631C2
:100910003626843140014808053E86008701403F65
:10092000B100413FB20020083107B3002108323D39
:10093000B400330886003408870041310108B5004F
:10094000B6013508C4003608C5006430A600003082
:10095000A7004508A1004408A0004808033E8600FF
:1009600087010108AF00B0012F08A2003008A300E2
:1009700096313626843140012108A9002008A800BC
:100980008831E020843140012608B8000330A200FD
:100990000030A3004608AF00B0012F08A0003008C7
:1009A000A10096313626843140014808053E860074
:1009B0008701403FB100413FB20020083107B3003A
:1009C0002108323DB40033088600340887004231E4
:1009D0000108B500B6013508C4003608C50064300A
:1009E000A6000030A7004508A1004408A000480860
:1009F000033E860087010108AF00B0012F08A20066
:100A00003008A30096313626843140012108A90020
:100A10002008A8008831E020843140012608B90070
:100A2000C7014708AF00B0014608B100B201310864
:100A3000A0003208A1001830A2000030A3009631B7
:100A40003626843140012F082007C2003008213D9E
:100A5000C3000130AF004708073C890A302DAF358D
:100A6000890B2F2D2F083705031D372D382D3D2DD0
:100A70000A30BA000030BB00412D1830BA000030F7
:100A8000BB0042086B07AF0043086C3DB0002F0865
:100A90008600300887003A0881000130AF0047081F
:100AA000073C890A542DAF35890B532D2F08380583
:100AB000031D5B2D5C2D612D0A30BC000030BD0094
:100AC000652D1830BC000030BD0042086B07AF0038
:100AD00043086C3DB0002F08083EB1000030303DA7
:100AE000B20031088600320887003C0881000130DE
:100AF000AF004708073C890A7E2DAF35890B7D2D55
:100B00002F083905031D852D862D8B2D0A30BE003B
:100B10000030BF008F2D1830BE000030BF004208EB
:100B20006B07AF0043086C3DB0002F08103EB100CA
:100B30000030303DB20031088600320887003E08A0
:100B400081000130AF002F08C70708304702031C9F
:100B5000AA2DAB2D112D0130AF002F08C607480874
:100B6000023E8600870101084602031CB82DB92DFC
:100B7000372CC001C101CF2D46018D014001400835
:100B80006B07860041086C3D8700010846018C0018
:100B900045018E1701304001C0070030C13D4808B3
:100BA000023E860087010108AF00B0012F08A000B7
:100BB0003008A1001830A2000030A300963136267C
:100BC0008431400121084102031DE82D2008400224
:100BD000031CEB2DEC2DBC2D03304001AF00F53094
:100BE000890BF02DAF0BF02D08004001C900C701A3
:100BF000652F0330A2000030A3004708B000B10108
:100C00003008A0003108A100963136268531400118
:100C10004908053E86008701403FB200413FB300CE
:100C20002008320786002108333D87000108B40000
:100C3000B5013408C5003508C6006430A600003090
:100C4000A7004608A1004508A0002F08B000B10188
:100C50003008A2003108A3009631362685314001C4
:100C60002108A9002008A8008831E0208531400132
:100C70002608B8000330A2000030A3004708B000E7
:100C8000B1013008A0003108A10096313626853127
:100C900040014908053E86008701403FB200413FC0
:100CA000B30020083207B4002108333DB5003408F2
:100CB00086003508870041310108B600B7013608C3
:100CC000C5003708C6006430A6000030A7004608FB
:100CD000A1004508A0002F08B000B1013008A20013
:100CE0003108A30096313626853140012108A9003C
:100CF0002008A8008831E020853140012608B9008D
:100D00000330A2000030A3004708B000B101300852
:100D1000A0003108A10096313626853140014908EE
:100D2000053E86008701403FB200413FB3002008E6
:100D30003207B4002108333DB50034088600350879
:100D4000870042310108B600B7013608C5003708F0
:100D5000C6006430A6000030A7004608A100450880
:100D6000A0002F08B000B1013008A2003108A30094
:100D700096313626853140012108A9002008A800B7
:100D80008831E020853140012608BA00C8014808B2
:100D9000B000B1014708B200B3013208A000330827
:100DA000A1001830A2000030A3009631362685310C
:100DB000400130082007C3003108213DC400013044
:100DC000B0004808073C890AE62EB035890BE52EAD
:100DD00030083805031DED2EEE2EF32E0A30BB0031
:100DE0000030BC00F72E1830BB000030BC004308B8
:100DF0006B07B00044086C3DB10030088600310834
:100E000087003B0881000130B0004808073C890A90
:100E10000A2FB035890B092F30083905031D112F12
:100E2000122F172F0A30BD000030BE001B2F1830C4
:100E3000BD000030BE0043086B07B00044086C3DA5
:100E4000B1003008083EB2000030313DB300320836
:100E50008600330887003D0881000130B000480853
:100E6000073C890A342FB035890B332F30083A05F7
:100E7000031D3B2F3C2F412F0A30BF000030C00024
:100E8000452F1830BF000030C00043086B07B0008A
:100E900044086C3DB1003008103EB2000030313DD6
:100EA000B30032088600330887003F088100013014
:100EB000B0003008C80708304802031C602F612FBB
:100EC000C72E0130B0003008C7074908023E86002F
:100ED000870101084702031C6E2F6F2FF92DC101F6
:100EE000C2018D2F41086B07860042086C3D8700C8
:100EF0000108B000B1013008A0003108A10095310F
:100F0000C425853145018E178E1B872F882F842F8E
:100F100001304001C1070030C23D4908023E860051
:100F200087010108B000B1013008A0003108A1001C
:100F30001830A2000030A3009631362685314001DA
:100F400021084202031DA62F20084102031CA92FDD
:100F5000AA2F722F03304001B000F530890BAE2F5D
:100F6000B00BAE2F0800ED2F9631C6268731410118
:100F7000C40040016D08F03EE900EA012E30EA3D70
:100F8000690886006A088700410144088100013031
:100F90004001E9006908ED0781306D02031CD12F83
:100FA000D22FD32FED010A3041014406031DD92F62
:100FB000DA2FED2FF0304001E4002E30E5006D080F
:100FC000E900EA016908E6006A08E700803150207C
:100FD00087314001ED014101C40195311725873169
:100FE000003A031DF42FF52FB42F08006030510193
:100FF0008D008F014030910006309300920108006F
:1010020042011D121D16080040012F08803AB2004D
:101012003108803A3202031D102830082E020318CC
:10102200132814282528F0304001A6002E30A700EE
:101032000030A800A9008030AA000030AB00953132
:10104200DD25883100302628013008004001A20049
:10105200220886008701403FA300413FA4004101CE
:101062002E082F04031D362837283B28F030AE0007
:101072002D30AF0000304001240204300319230256
:1010820003184428452849280430A3000030A4004E
:10109200230841012E024001A500240841012F3BF3
:1010A2004001A600203026029A3003192502031CB3
:1010B2005B285C286A2841012F0840012602031D93
:1010C200662841012E0840012502031C69286A286E
:1010D20073280C304101B4000030B5004001A0017A
:1010E200A101812826084101AF00400125084101E4
:1010F200AE002F084001A10041012E084001A000CE
:101102000800400196019701980199019A01FF3068
:101112009100F4309200FF309300FF3094000730CA
:101122009500FF307E01B800F230C300FF30CE00E0
:10113200FF30D9000730E400B901C401CF01DA0160
:10114200E501BA01C501D001DB01E601FF30BB00B8
:10115200F730C600FF30D100FF30DC000730E70077
:10116200FF30BC00F730C700FF30D200FF30DD0097
:101172000F30E8000A307D01CB0015307E01980067
:1011820009307D01A10009307E019900BD01BE0137
:10119200BF010430C8000430C900CA01D301D40120
:1011A200D501E901EA01EB0103304001A000003062
:1011B200A1009531292588314E01161608004001FB
:1011C200AC01A71FE528E628ED28A609A709A60A6B
:1011D2000319A70AAC01AC0AA91FF028F128FA28C2
:1011E200A809A909A80A0319A90A0130AA002A080C
:1011F200AC06AD01AE012608270403190129022914
:101202003129AB01AB0A0E290130A635A70D890B96
:1012120006290130AA002A08AB07A71F11291229A3
:1012220005290130AD35AE0D890B13292708290296
:10123200031D1D2926082802031C202921292629ED
:101242002608A8022708A93B2D140130A736A60CB0
:10125200890B27290130AB02031D302931291229BC
:101262002C080319352936293B29AD09AE09AD0AE7
:101272000319AE0A2E08A7002D08A6000800400197
:101282002F083004031D46294729582941012D08FA
:101292004001B00041012C084001AF002F0830048A
:1012A200031D542955295829AF01B001A22930083C
:1012B200A8002F08A7003208AA003108A900973118
:1012C2005D27893140012708AF072808B03D2F0864
:1012D2008600300887000108031D702971297829CA
:1012E2004101AC01AD014001AF01B001A2293008BA
:1012F200A8002F08A7003208AA003108A9009731D8
:101302002A278931400127082F074101AC004001FB
:101312002808303D4101AD002C0886002D088700C9
:101322000108031995299629A0292C0886002D0861
:10133200870081010130AC070030AD3DA229AC012C
:10134200AD0108007508F600F701F635F70DF0302B
:10135200F8002D30F9007608780786007708793D85
:1013620087000030C03FC13F42019D1CB929BA2904
:10137200D6297508F600F701F635F70DF030F800BA
:101382002D30F9007608780786007708793D8700C6
:1013920001154101380839040319D029D129D62968
:1013A20039088A0038080A00893142011D1DDA29EC
:1013B200DB29F7297508F600F701F635F70DF0304D
:1013C200F8002D30F9007608780786007708793D15
:1013D2008700811441013A083B040319F129F229DB
:1013E200F7293B088A003A080A00893142011908A4
:1013F200FA007508013E7F39FB007B087406031D65
:10140200032A042A052A182A7508703EF600F701F5
:101412002F30F73D76088600770887007A0881002A
:101422007B08F5000130F60076084001EF0708005E
:101432004001AB01AC01AA01222A0130A60700300B
:10144200A73D2608860027088700203001060319D9
:101452002B2A2C2A1E2A2608860027088700F73006
:101462000107A80005302802031C382A392A1E2A3F
:1014720026088600270887002D300106031D422A10
:10148200432A4A2AAA01AA0A0130A6070030A73D28
:10149200732A26088600270887002B300106031DC1
:1014A200532A542A732A452A2608860027088700C9
:1014B2002C08A1002B08A0000A30A2000030A300D3
:1014C200963136268A3140012108A90001082002FE
:1014D200A800031CA9032808303EAB000030293DB8
:1014E200AC00452A2608860027088700D03001076D
:1014F200A8000A302802031C7F2A802A552A2A08BB
:10150200031D842A852A912A2B09A8002C09A900E7
:10151200A80A0319A90A2808A6002908A700952ADB
:101522002C08A7002B08A60008004001D600560888
:10153200033E860087010108CC00CD014D084B0215
:10154200031DA52A4C084A020318A82AA92AAA2A76
:10155200132B5608033E860087010108CC00CD01FB
:101562004C08A0004D08A1004B08A3004A08A200A5
:101572009731C3278A3140012008CE002108CF00CD
:10158200CF36CE0C4E08D0004F08D1005608033E8D
:10159200860087010108CC00CD014C08D4004D081B
:1015A200D500D51FD52AD62AD72AEB2A5408AF0050
:1015B20056088531F5258A3140015108A1005008AD
:1015C200A0009531FA258A31FE304001D407FF3060
:1015D200D53DD22AD201D301022B40015208AF00DD
:1015E20056088531F5258A3140015108A10050087D
:1015F200A0009531FA258A3102304001D20700302D
:10160200D33D5608033E860087015308803ACC003A
:1016120080304C02031D0F2B01085202031C122BB7
:10162200132BEE2A08004001B9003908023E860059
:10163200870101082D02031C1F2B202B212B962B27
:101642002D08B100B2013108A0003208A100033018
:10165200A2000030A300963136268B3140013908B2
:10166200053E86008701403FB300413FB400200899
:101672003307B5002108343DB60035088600360828
:1016820087002F0881002D08B100B2013108A000A7
:101692003208A1000330A2000030A30096313626A2
:1016A2008B3140013908053E86008701403FB30077
:1016B200413FB40020083307B5002108343DB6008D
:1016C2003508013EB7000030363DB80037088600C5
:1016D200380887002E0881002D08B100B2013108B8
:1016E200A0003208A1000330A2000030A30096310E
:1016F20036268B3140013908053E86008701403F7E
:10170200B300413FB40020083307B5002108343D3F
:10171200B6003508023EB7000030363DB800370843
:101722008600380887003008810008004001CB009D
:101732004B08023E860087010108C900CA01490818
:10174200A0004A08A1000330A2000030A300963195
:1017520036268B3140012108B5002008B4008D31B6
:101762004A258B3140014B08053E8600870134082B
:10177200C03F3508C13F4B08053E86008701160071
:101782000104031DC52BC62BC82B0030192C4B0896
:10179200023E860087010108C900CA014908A0006B
:1017A2004A08A1001830A2000030A3009631362664
:1017B2008B3140012108B5002008B4008D314A2543
:1017C2008B3140013508EC003408EB006B086C04E7
:1017D200031DEC2BED2BEE2BC62B4B08053E860092
:1017E2008701403FA600413FA7000030A800A900A2
:1017F2004B08023E860087010108C900CA01490858
:10180200A0004A08A1000330A2000030A3009631D4
:1018120036268B3140012108AB002008AA00953101
:10182200DD258B3140014B08843133248B3101306B
:1018320008004001E300E201992C6208D900DA01B4
:101842005908A0005A08A1000330A2000030A300EA
:10185200963136268C3140016308053E86008701A9
:10186200403FDB00413FDC0020085B078600210887
:101872005C3D87000108DF006208D900DA015908DF
:10188200A0005A08A1000330A2000030A300963144
:1018920036268C3140016308053E86008701403FB1
:1018A200DB00413FDC0020085B07DD0021085C3DD6
:1018B200DE005D0886005E08870041310108E00015
:1018C2006208D900DA015908A0005A08A1000330C1
:1018D200A2000030A300963136268C314001630805
:1018E200053E86008701403FDB00413FDC002008C7
:1018F2005B07DD0021085C3DDE005D0886005E08B6
:10190200870042310108E1005F08AF006008B000C3
:101912006108B100630886008701433FB200630893
:101922008E3107268C3101304001D9005908E20777
:101932006308023E8600870101086202031CA22C92
:10194200A32C1E2C03304001D900F530890BA72CA3
:10195200D90BA72C080040012108A7002008A600E7
:1019620020082104031DB62CB72CB82C492D2608BB
:10197200FE3EA800FF30273DA9007008710403193C
:10198200C32CC42C402D2808860029088700403F1C
:101992002607A200413F273DA30071082306031D2D
:1019A200D42C70082206031DD72CD82C032D7008C6
:1019B20086007108870042312808840029088500C2
:1019C2000231403F803F413F813F700886007108ED
:1019D2008700403FA200413FA3002208023EA4002C
:1019E2000030233DA5002808860029088700240826
:1019F200810741312508813D7F312908F1002808FE
:101A0200F000492D7008860071088700403F70077A
:101A1200A200413F713DA3002208023EA400003013
:101A2200233DA50029082506031D192D2808240693
:101A3200031D1C2D1D2D362D280886002908870020
:101A4200403FA200413FA3002208023EA400003012
:101A5200233DA500700886007108870024088107CD
:101A620041312508813D7F31492D2808860029080A
:101A7200870042317008C03F7108C13FFE2C280820
:101A820086002908870042310030C03FC13FFE2C4A
:101A920008004001BC01BD0134083504031D522D6C
:101AA200532D572D0130B4070030B53D00303502BB
:101AB20002300319340203185F2D602D652D0230A8
:101AC200B4000030B5007D2D3508B7003408B600EB
:101AD200B609B7090030370202300319360203187B
:101AE200732D742D7D2D0C304101B4000030B500F2
:101AF2004001B401B501062E3508A1003408A0004A
:101B02008E31E0268D3140012108BF002008BE0041
:101B12003E083F04031D8E2D8F2D012E41013208F8
:101B220030024001B60041013308313B4001B700A9
:101B320035083702031D9F2D340836020318A22DE3
:101B4200A32DD82D3408023EB8000030353DB9002F
:101B52003830883127208D3140012108C10020080A
:101B6200C00040084104031DB72DB82DB92D792DB1
:101B72004101310840014106031DC32D41013008D6
:101B8200400140060319C62DC72DCE2D4108410143
:101B9200B300400140084101B2004001380840074B
:101BA2004101B00040013908413D4101B10041010C
:101BB20033084001BF00410132084001BE003F0826
:101BC200BB003E08BA003A0886003B08870034088A
:101BD200C03F3508C13F0230BA070030BB3D3B0869
:101BE200BF003A08BE003408023EB6000030353D60
:101BF200B70036084101B207400137084101B33D41
:101C020040013F08B5003E08B400080064304001BE
:101C1200A6000030A7002F08B300B4013308A000CB
:101C22003408A1003208B500B6013508A200360812
:101C3200A300963136268E3140012108A9002008E2
:101C4200A8008831E0208E3140012608AF006430C0
:101C5200A6000030A7003008B300B4013308A0008A
:101C62003408A1003208B500B6013508A2003608D2
:101C7200A300963136268E3140012108A9002008A2
:101C8200A8008831E0208E3140012608B00064307F
:101C9200A6000030A7003108B300B4013308A00049
:101CA2003408A1003208B500B6013508A200360892
:101CB200A300963136268E3140012108A900200862
:101CC200A8008831E0208E3140012608B100D801F9
:101CD2000130B3005808073C890A702EB335890BCE
:101CE2006F2E3308D6002F085605031D792E7A2E43
:101CF2007F2E0A30D0000030D100832E1430D00065
:101D02000030D1005808373E860087015008810014
:101D120030085605031D8E2E8F2E942E0A30D200C7
:101D22000030D300982E1430D2000030D30058086F
:101D3200083E373E86008701520881003108560569
:101D4200031DA42EA52EAA2E0A30D4000030D500E1
:101D5200AE2E1430D4000030D5005808103E373E65
:101D620086008701540881000130B3003308D80788
:101D720008305802031CBE2EBF2E692ED701570809
:101D8200373E860087010108B300B4013308A00082
:101D92003408A1009531C4258E3145018E178E1B62
:101DA200D32ED42ED02E01304001B3003308D707F2
:101DB20018305702031CDE2EDF2EC02E0800400111
:101DC200B201B301A801A901AC01AD01700871040F
:101DD200031DEC2EED2EF02EA001A101FF2F7108A4
:101DE200B1007008B000742F3008860031088700F7
:101DF200403FA200413FA30021082306031D032FF9
:101E020020082206031D062F072F2C2F2C082D0435
:101E120003190C2F0D2F1C2F300886003108870064
:101E220042312C0884002D0885000231403F803F5A
:101E3200413F813F252F300886003108870042311B
:101E4200403FF000413FF1003008023EA000003068
:101E5200313DA100FF2F3008860031088700403F46
:101E6200A200413FA30023082102031D3A2F2208AA
:101E7200200203183D2F3E2F672F32083304031927
:101E8200432F442F5F2F3208860033088700403FDC
:101E9200A200413FA3003008860031088700403F7E
:101EA200A400413FA50023082502031D5A2F220842
:101EB2002402031C5D2F5E2F5F2F672F3108B300B2
:101EC2003008B2002D08A9002C08A8003108AD0086
:101ED2003008AC0030088600310887004231403FAC
:101EE200B000413FB10030083104031D792F7A2F31
:101EF200F52E3208330403197F2F802FED2E32087E
:101F02008600330887004231403FAE00413FAF00B8
:101F12003208860033088700403FA200413FA300F9
:101F220020082202A4002108233BA500003025023C
:101F3200053003192402031C9F2FA02FE12F320822
:101F4200860033088700403FA200413FA3002008DB
:101F52002202A4002108233BA5002408FE3EA6007D
:101F6200FF30253DA700320886003308870020088D
:101F7200C03F2108C13F3208860033088700403F36
:101F82003207A200413F333DA3002208023EAA00CD
:101F92000030233DAB002A0886002B088700260864
:101FA200C03F2708C13F2A0886002B08870042311C
:101FB2002E08C03F2F08C13F2B08AF002A08AE00F1
:101FC20033087106031DE72F32087006031DEA2F3E
:101FD200EB2FF02F2F08F1002E08F000F92F280820
:101FE20086002908870042312E08C03F2F08C13FD2
:0E1FF2003208023EA0000030333DA10008007E
:102A1C007E014A1D122D132D162D95315E259531F3
:102A2C00080040016F08031D1C2D1E2D01301F2DA9
:102A3C0000300800400121084101C100400120087C
:102A4C004101C0000800400121084101E90040019A
:102A5C0020084101E8000800400121084101BF00A5
:102A6C00400120084101BE0008008F3046018E0055
:102A7C008D018C0144011E08FC3901389E000800B0
:102A8C004E010C100B1400304001A0000030A100CE
:102A9C009531202595310800640080010131013009
:102AAC00FE020030FF3B7F087E04031D532D0034D3
:102ABC004101680869040319642D652D6A2D6908A4
:102ACC008A0068080A0095317E014A11080040010D
:102ADC00200821040319732D742D7B2D210841012D
:102AEC00BB00400120084101BA0008004001200849
:102AFC0021040319822D832D8A2D21084101B9004F
:102B0C00400120084101B8000800400120082104C0
:102B1C000319912D922D992D21084101C3004001DB
:102B2C0020084101C20008008731F6279531883111
:102B3C008220953196319826953195313B259531EA
:102B4C009531AD25953195314625953108000130EB
:102B5C0045019000A8308F00910109308D008C0147
:102B6C0000304001A0000030A10095313225953194
:102B7C004E019010803045018E000800FF3040015E
:102B8C00A0050330A10546010E1ECD2DCE2DD42D52
:102B9C0006304001A035A10D890BD02D4001210834
:102BAC0046018D004001200846018C0008004001C0
:102BBC002708AD002608AC00ED2D2C0886002D084A
:102BCC008700280881000130AC070030AD3D013092
:102BDC00AA020030AB3B2A0A031DF82D2B0A031D59
:102BEC00F82DF92DE32D08004001A301A4010C2EB2
:102BFC000B304001A2006230890B022EA20B022E78
:102C0C00000001304001A3070030A43D210824023C
:102C1C00031D122E20082302031C152E162EFE2D2A
:102C2C0008004001200884002108850000082206C5
:102C3C00031D212E222E232E352E2108A50020081F
:102C4C00A400A00A0319A10A240884002508850001
:102C5C001200031D322E332E172EA001A1010800E5
:102C6C004001A401A501201C3C2E3D2E412E220822
:102C7C00A4072308A53D0130A235A30D890B422ED4
:102C8C000130A136A00C890B472E20082104031D0E
:102C9C00502E512E392E2508A1002408A000080022
:102CAC004001CB00CA01682E4A08AD00AE01AF014D
:102CBC00B0014B088B311423963101304001C9000F
:102CCC004908CA074B08023E8600870101084A02E0
:102CDC00031C712E722E5A2E4B08843133249631DC
:102CEC00080095319A2596318B170B1751018C17CB
:102CFC00410145080319832E842E902E370840017C
:102D0C00CB00410136084001CA00C6308A319622F8
:102D1C009631922E630000008731B32796317E2EB8
:102D2C00803128284E019912A3304001A0000930AF
:102D3C00A10095318B259631483042019F0090308F
:102D4C009D0006309E0044309B009C0102304001E7
:102D5C00A0000030A10095316D2596310130400165
:102D6C00A0000830A10095317C2596314101BC01B1
:102D7C00BD01F501F4014001EF014E019916080067
:102D8C007408703E860087012F30873D0108400192
:102D9C00A5007408013E7F39A4002408F4007408CF
:102DAC00A000A101A035A10DF030A2002D30A30090
:102DBC002008220786002108233D8700403F41015F
:102DCC00BC00413FBD004E01991240016F08031930
:102DDC00F02EF12EF32E0130EF024E019916400128
:102DEC0025080800012F0130A0070030A13D01305B
:102DFC00A2070030A33D400122088400230885006F
:102E0C000008A40020088600210887000108240679
:102E1C00031D112F122F1B2F20088600210887005D
:102E2C000108031D1A2F1B2FF92E200886002108DC
:102E3C008700220884002308850000080102A000F6
:102E4C00A101031CA10308004001AD01AE01362F06
:102E5C000130A7070030A83D0130AD070030AE3D72
:102E6C002708860028088700010803193E2F3F2FEA
:102E7C00582F2A08A1002908A00027088600280836
:102E8C0087000108AB00AC012B08A2002C08A300A2
:102E9C009631172697314001200821040319572F2A
:102EAC00582F2E2F2E08A8002D08A700080040012F
:102EBC00AD01AE01692F0130A7070030A83D0130EC
:102ECC00AD070030AE3D27088600280887000108B2
:102EDC000319712F722F8B2F2A08A1002908A0002B
:102EEC0027088600280887000108AB00AC012B08D6
:102EFC00A2002C08A3009631172697314001200818
:102F0C002104031D8A2F8B2F612F2E08A8002D085A
:102F1C00A70008004001AA002A08053E8600870188
:102F2C00403FA000413FA1008C31AC2497314001BF
:102F3C006C08A1006B08A0008C31AC2497314001C7
:102F4C002A08053E860087010030C03FC13F2A0891
:102F5C00860087010030C03FC13F2A08023E860030
:102F6C00870181012A08033E8600870181012A0816
:102F7C00073E86008701810108004001A601A701D8
:102F8C00200821040319CB2FCC2FFB2FA501A50A58
:102F9C00D82F0130A035A10D890BD02F0130A40002
:102FAC002408A507A11FDB2FDC2FCF2F0130A6355E
:102FBC00A70D890BDD2F21082302031DE72F200805
:102FCC002202031CEA2FEB2FF02F2008A20221086B
:102FDC00A33B26140130A136A00C890BF12F013034
:102FEC00A502031DFA2FFB2FDC2F2708A1002608B2
:102FFC00A00008009834163400340034C63416345B
:10300C0000340034173415340034003400340034E8
:10301C000034003400340034003400340034003404
:10302C0000340034003400340034003400340034F4
:10303C000034003400340034003400348B34153444
:10304C00003400346D3415347C34153400340034C1
:10305C0000340034003400340034003400340034C4
:10306C0000340034003400340034003400340034B4
:10307C0000340034003400340034003400340034A4
:10308C0000340034003400340034003453345434ED
:10309C004134523454345F3446344134443445342E
:1030AC005F34533449344E3447344C344534003453
:1030BC00533454344F3450345F34463441344434F4
:1030CC0045345F34533449344E3447344C344534EE
:1030DC000034533454344134523454345F34463411
:1030EC004134443445345F3441344C344C34003432
:1030FC005334453454345F344234523449344734B5
:10310C00483454344E3445345334533400345334EB
:10311C0054344F3450345F344634413444344534A1
:10312C005F3441344C344C34003443344C344534E7
:10313C00413452345F34533449344E3447344C3474
:10314C0045340034AD3415340034003400340034CC
:10315C0000340034323415340034003453344534E4
:10316C0054345F34533449344E3447344C3445343E
:10317C00003440340A3410340134003464340034E4
:10318C0010340134003443344C344534413452341B
:10319C005F3441344C344C3400345334453454345F
:1031AC005F3441344C344C34003444344534493469
:0C31BC004E344934543400342C340034B8
:020000040001F9
:0A000E008C3F3F3F9F3FFF3FFF3F45
:00000001FF
