:04000000803114280F
:100008007E1480314E01161E0A280B2812280C1E59
:100018000E280F2812288731FE2780317E1009000C
:1000280080311628CC3084008F308500C830860097
:10003800003087000030FF0018308731F227803108
:10004800703084002F3085008030FE000030FF00C3
:100058008F3184278031E601E701E801E901EA01EF
:10006800EB01EC01ED01A030840000308500283060
:10007800FE000030FF008F31842780317E10400160
:100088008731182F4001DE005E08063E8600870192
:10009800403FCE00413FCF005E08023E8600870108
:1000A8000108B900BA013908F0003A08F10018301F
:1000B800F2000030F30087317F2780317108F800A3
:1000C8007008F7008331F823803178084001DD009B
:1000D8007708DC005C085D04031D73287428752804
:1000E800D72AD601D7016D2A0330F2000030F30079
:1000F80040015708F1005608F00087317F2780310A
:10010800700840014E07860071084F3D87000108BE
:10011800B900BA013908D4003A08D5006430F600AD
:100128000030F7005508F1005408F0003808B9000D
:10013800BA013908F2003A08F30087317F27803185
:100148007108F9007008F800863120268031760899
:100158004001C9000330F2000030F3005708F100F5
:100168005608F00087317F278031700840014E071C
:10017800B90071084F3DBA00390886003A0887006F
:1001880041310108BB00BC013B08D4003C08D50044
:100198006430F6000030F7005508F1005408F0000C
:1001A8003808B900BA013908F2003A08F300873173
:1001B8007F2780317108F9007008F8008631202601
:1001C800803176084001CA000330F2000030F300A5
:1001D8005708F1005608F00087317F2780317008F2
:1001E80040014E07B90071084F3DBA003908860032
:1001F8003A08870042310108BB00BC013B08D40023
:100208003C08D5006430F6000030F7005508F100CE
:100218005408F0003808B900BA013908F2003A0861
:10022800F30087317F2780317108F9007008F800E2
:1002380086312026803176084001CB005E08083ED2
:1002480086008701010803192A292B29CA29D80100
:10025800D90140015708F1005608F0001830F200A3
:100268000030F30087317F2780314001580870073C
:10027800D0005908713DD1000130B9005808073C39
:10028800890A4729B935890B462939084905031DC3
:100298004E294F2954290A30BD000030BE00582984
:1002A8001430BD000030BE0050085C07B90051088A
:1002B8005D3DBA00390886003A0887003D0881008C
:1002C8000130B9005808073C890A6B29B935890BF0
:1002D8006A2939084A05031D7229732978290A30C1
:1002E800BF000030C0007C291430BF000030C000BF
:1002F80050085C07B90051085D3DBA003908083E4E
:10030800BB0000303A3DBC003B0886003C08870033
:100318003F0881000130B9005808073C890A95292F
:10032800B935890B942939084B05031D9C299D294A
:10033800A2290A30C1000030C200A6291430C10029
:100348000030C20050085C07B90051085D3DBA0092
:100358003908103EBB0000303A3DBC003B0886001F
:100368003C088700410881000130D8070030D93D9A
:100378005908803AB90080303902031DC529083070
:100388005802031CC829C9292D29682ADA01DB016A
:1003980040015708F1005608F0001830F20000300C
:1003A800F30087317F27803140015A087007D20057
:1003B8005B08713DD3000130B9005A08073C890A2F
:1003C800E629B935890BE52939084905031DED29C1
:1003D800EE29F3290A30C3000030C400F72914308D
:1003E800C3000030C40052085C07B90053085D3DE3
:1003F800BA00390886003A088700430881000130AE
:10040800B9005A08073C890A0A2AB935890B092A0A
:1004180039084A05031D112A122A172A0A30C5006D
:100428000030C6001B2A1430C5000030C600520830
:100438005C07B90053085D3DBA003908083EBB00A7
:1004480000303A3DBC003B0886003C088700450860
:1004580081000130B9005A08073C890A342AB935A5
:10046800890B332A39084B05031D3B2A3C2A412AAC
:100478000A30C7000030C800452A1430C7000030D1
:10048800C80052085C07B90053085D3DBA00390836
:10049800103EBB0000303A3DBC003B0886003C08DB
:1004A8008700470881000130DA070030DB3D5B0830
:1004B800803AB90080303902031D642A08305A0294
:1004C800031C672A682ACC2901304001D60700306E
:1004D800D73D5E08023E860087015708803AB9007A
:1004E80080303902031D7A2A01085602031C7D2A2E
:1004F8007E2A782840015E08083E860087010108A8
:100508000319872A882A892AC72ACC01CD01A62A55
:1005180040014C085C0786004D085D3D87000108D6
:10052800B900BA013908F0003A08F1008F31A32761
:100538008031450194174601921701304001CC07DC
:100548000030CD3D5E08023E860087010108B900F3
:10055800BA013908F0003A08F1001830F20000300A
:10056800F30087317F27803140014D08803ABB0076
:100578007108803A3B02031DC32A70084C02031C11
:10058800C62AC72A8C2A40015D08F1005C08F000E1
:100598008431AF24803103304001B900F530890B34
:1005A800D32AB90BD32A08004001AC01AD01A2013E
:1005B800A301A601A70168086904031DE42AE52A26
:1005C800E82AF001F101F72B6908AB006808AA00D6
:1005D8006C2B2A0886002B088700403FF200413F19
:1005E800F30071087306031DFB2A70087206031DC9
:1005F800FE2AFF2A242B260827040319042B052B7F
:10060800142B2A0886002B0887004231260884000C
:10061800270885000231403F803F413F813F1D2B25
:100628002A0886002B0887004231403FE800413FF6
:10063800E9002A08023EF00000302B3DF100F72BBC
:100648002A0886002B088700403FF200413FF3004C
:1006580073087102031D322B720870020318352BC0
:10066800362B5F2B2C082D0403193B2B3C2B572BC7
:100678002C0886002D088700403FF200413FF30018
:100688002A0886002B088700403FF400413FF50008
:1006980073087502031D522B72087402031C552B34
:1006A800562B572B5F2B2B08AD002A08AC002708C8
:1006B800A3002608A2002B08A7002A08A6002A08DB
:1006C80086002B0887004231403FAA00413FAB001B
:1006D8002A082B04031D712B722BED2A2C082D04DC
:1006E8000319772B782BE52A2C0886002D0887001C
:1006F8004231403FA800413FA9002C0886002D0840
:100708008700403FF200413FF30070087202F40096
:100718007108733BF5000030750205300319740247
:10072800031C972B982BD92B2C0886002D088700A3
:10073800403FF200413FF30070087202F400710874
:10074800733BF5007408FE3EA000FF30753DA10024
:100758002C0886002D0887007008C03F7108C13F2B
:100768002C0886002D088700403F2C07F200413FE7
:100778002D3DF3007208023EA4000030733DA50031
:1007880024088600250887002008C03F2108C13FAB
:10079800240886002508870042312808C03F290818
:1007A800C13F2508A9002408A8002D086906031DD3
:1007B800DF2B2C086806031DE22BE32BE82B290806
:1007C800E9002808E800F12B2208860023088700A2
:1007D80042312808C03F2908C13F2C08023EF000DA
:1007E80000302D3DF10008004001B201B301770847
:1007F8007804031D002C012C052C0130F70700306C
:10080800F83D0030780202300319770203180D2CE6
:100818000E2C132C0230F7000030F8002A2C780830
:10082800FA007708F900F909FA0900307A0202306B
:10083800031979020318212C222C2A2C0C3041018F
:10084800AA000030AB00F701F801AE2C7808F100DF
:100858007708F0008231D822833171084001B50051
:100868007008B40034083504031D3B2C3C2CA92C1B
:10087800410128082602F9002908273BFA007808D0
:100888007A02031D492C7708790203184C2C4D2C49
:10089800832C7708023E4001AE000030783DAF005F
:1008A8002E308631CE26833171084001B70070089A
:1008B800B60036083704031D622C632C642C272CE1
:1008C8004101270840013706031D6E2C4101260807
:1008D800400136060319712C722C792C3708410116
:1008E800A900400136084101A80040012E0836073A
:1008F8004101A60040012F08373D4101A700290802
:100908004001B500410128084001B4003508B10094
:100918003408B00030088600310887007708C03FE7
:100928007808C13F0230B0070030B13D3108B5004A
:100938003008B4007708023EF9000030783DFA002C
:1009480079084101A8077A08A93D40013508F8004F
:100958003408F70008007108F7007008F6007008FE
:100968007104031DB82CB92CBA2C4C2D7608FE3E08
:10097800F800FF30773DF900400168086904031961
:10098800C62CC72C432D7808860079088700403F7D
:100998007607F200413F773DF30069087306031DAF
:1009A800D72C68087206031DDA2CDB2C062D680884
:1009B8008600690887004231780884007908850034
:1009C8000231403F803F413F813F68088600690807
:1009D8008700403FF200413FF3007208023EF400F6
:1009E8000030733DF50078088600790887007408A0
:1009F800810741317508813D7F317908E900780820
:100A0800E8004C2D6808860069088700403F6807A1
:100A1800F200413F693DF3007208023EF4000030E5
:100A2800733DF50079087506031D1C2D78087406BA
:100A3800031D1F2D202D392D780886007908870081
:100A4800403FF200413FF3007208023EF4000030DC
:100A5800733DF500680886006908870074088107F7
:100A680041317508813D7F314C2D78088600790821
:100A7800870042316808C03F6908C13F012D7808E6
:100A880086007908870042310030C03FC13F012D00
:100A98000800FC007C08023E8600870101087602F7
:100AA800031C572D582D592DBF2D7C08063E860056
:100AB8008701403FFA00413FFB0076084001A00053
:100AC800A1012008F0002108F1000330F2000030F5
:100AD800F30087317F27853170087A074001A2002B
:100AE80071087B3DA3002208860023088700780848
:100AF80081007608A000A1012008F0002108F1007B
:100B08000330F2000030F30087317F278531700809
:100B18007A074001A20071087B3DA3002208013E2C
:100B2800A4000030233DA50024088600250887007E
:100B3800770881007608A000A1012008F0002108AC
:100B4800F1000330F2000030F30087317F27853150
:100B580070087A074001A20071087B3DA3002208B3
:100B6800023EA4000030233DA50024088600250885
:100B780087007908810008004001E3006308023E0D
:100B8800860087010108DF00E0015F08F0006008C7
:100B9800F1000330F2000030F30087317F27853100
:100BA8007108F8007008F7008331F8238531780858
:100BB8004001E2007708E10061086204031DE52DA9
:100BC800E62DE82D00301F2E6308063E86008701BB
:100BD8006108C03F6208C13F6308063E860087017E
:100BE800403FF600413FF7000030F800F900630885
:100BF800023E860087010108DF00E0015F08F0007F
:100C08006008F1000330F2000030F30087317F27DD
:100C180085317108FB007008FA008731D6278531C5
:100C28004001630886008701433FB80063088031AC
:100C380046208531013008004001A101F71F252E0B
:100C4800262E2D2EF609F709F60A0319F70AA1012F
:100C5800A10AF91F302E312E3A2EF809F909F80A9F
:100C68000319F90A0130FA007A08A106A201A301C2
:100C7800760877040319412E422E712EA001A00A8E
:100C88004E2E0130F635F70D890B462E0130FA004D
:100C98007A08A007F71F512E522E452E0130A23593
:100CA800A30D890B532E77087902031D5D2E760854
:100CB8007802031C602E612E662E7608F8027708EB
:100CC800F93B22140130F736F60C890B672E0130F8
:100CD800A002031D702E712E522E21080319752EA5
:100CE800762E7B2EA209A309A20A0319A30A2308B8
:100CF800F7002208F60008004001960197019801C4
:100D080099019A01FF309100FE309200FF30930064
:100D1800FF30940007309500FF307E01B800F830AE
:100D2800C300FF30CE00FF30D9000730E400B9011E
:100D3800C401CF01DA01E501BA01C501D001DB0127
:100D4800E601FF30BB00FF30C600FF30D100FF30A6
:100D5800DC000730E700FF30BC00FF30C700FF3081
:100D6800D200FF30DD000F30E80009307D019D0022
:100D78000A30CB0015307E019800BD01BE01BF01CD
:100D8800C801C901CA01D301D401D501E901EA01A9
:100D9800EB010800F200720886008701403FF3006B
:100DA800413FF400400166086704031DDC2EDD2E78
:100DB800E12E7030E6002F30E70000307402043076
:100DC800031973020318E92EEA2EEE2E0430F300FD
:100DD8000030F40073086602F5007408673BF600FB
:100DE80020307602903003197502031CFC2EFD2E6C
:100DF800072F67087602031D032F66087502031C78
:100E0800062F072F0F2F0C304101AA000030AB002E
:100E1800F001F101172F7608E7007508E60067086A
:100E2800F1006608F00008008F31902787314101F2
:100E3800BF01C0011930C1003230C200C7018F3173
:100E48003B278731BF308531C02587314001E50117
:100E58003C2F6508F600F701FF30F800F901B630BD
:100E680085314D25873101304001E4006408E507EC
:100E78004101410840016502031C432F442F2D2FD7
:100E8800410142084001B800BF3080314620873117
:100E9800442F80311428E4340F34003400340034F3
:100EA800003400340034003400340034003400349A
:100EB800003400340034003400340034003400348A
:100EC800003400340034003400340034003400347A
:100ED800003400340034003400340034003400346A
:100EE8000034003400346C340F3478340F34003458
:100EF800003400340034F401F501701C842F852F70
:100F0800892F7208F4077308F53D0130F235F30DA7
:100F1800890B8A2F0130F136F00C890B8F2F70085E
:100F28007104031D982F992F812F7508F1007408FB
:100F3800F000080000340034003400340034003479
:100F480000340034003400340034003400340034F9
:100F580000340034003400340034003400340034E9
:100F680000340034003400340034003440340A348F
:100F78001034013400346434003410340134003443
:100F8800533454344134523454345F344634413445
:100F9800443445345F34533449344E3447344C3444
:100FA800453400347708FD007608FC00E52F7C08FE
:100FB80086007D088700780881000130FC07003032
:100FC800FD3D0130FA020030FB3B7A0A031DF02F89
:100FD8007B0A031DF02FF12FDB2F0800FE00120003
:100FE8001E000130FE020030FF3B7F087E04031D17
:060FF800F32F0034080095
:101E760045019417080071084001EB007008EA005C
:101E8600080071084101AD007008AC0008008F30F1
:101E9600460192009101900144011E08F339083869
:101EA6009E0008004E010C100B140030F0000030AC
:101EB600F1008F313E278F310800603051018D00CF
:101EC60060308E008F014030910006309300920101
:101ED6000800700871040319712F722F772F71088B
:101EE6004101B3007008B2000800700871040319BC
:101EF6007D2F7E2F832F71084101B1007008B0003D
:101F060008006400800101310130FE020030FF3B11
:101F16007F087E04031D852F00348F3160278F31A3
:101F2600863180268F318F31E4278F318F314A27D2
:101F36008F318F31B6278F318F3155278F3108007A
:101F4600FF30F0050330F1054601121EAB2FAC2F12
:101F5600B12F0630F035F10D890BAD2F71089100C8
:101F66007008900008000130450196001730950072
:101F760097010930930092010030F0000030F10023
:101F86008F3144278F314E019011803045019400E6
:101F960008000E3404340E3404340E3404340E3483
:101FA60004340E3404340E3404340E3404340E3443
:101FB60004340E3404340034003400340034003465
:101FC6000034483042019F0090309D0006309E004C
:101FD60044309B009C010030F0000030F1008F314E
:101FE6006C278F310030F0000030F1008F317827F8
:101FF6008F314101B401B5010800533454344F34D4
:1020060050345F3446344134443445345F345334B9
:1020160049344E3447344C34453400345334543404
:102026004134523454345F344634413444344534B4
:102036005F3441344C344C340034533445345434D6
:102046005F344234523449344734483454344E347D
:102056004534533453340034533454344F345034A9
:102066005F3446344134443445345F3441344C346F
:102076004C34003443344C344534413452345F34A8
:10208600533449344E3447344C3445340034B63432
:102096000F343B340F3400340034003400344434FD
:1020A6000F34003400345334453454345F345334DD
:1020B60049344E3447344C344534003443344C347C
:1020C6004534413452345F3441344C344C3400345A
:1020D6005334453454345F3441344C344C34003436
:1020E6004434453449344E344934543400342C3461
:0220F6000034B4
:020000040001F9
:0A000E00EC3E3F3F9F3FFF3FFF3FE6
:00000001FF
