:04000000803114280F
:100008007E1480314E01161E0A280B2812280C1E59
:100018000E280F2812288131792180317E1009009D
:100028008031162870308400003085000A30813114
:100038006321803120308400003085001230813106
:10004800632180317E104001813169294001960188
:100058009701980199019A01FF309100FC309200B4
:10006800FF309300FF30940007309500FF307E0189
:10007800B800FE30C3007F30CE00FF30D900073013
:10008800E400B901C401CF01DA01E501BA01C501F3
:10009800D001DB01E601FF30BB00FF30C600FF30B6
:1000A800D100FF30DC000730E700FF30BC00FF3034
:1000B800C700FF30D200FF30DD000F30E8001730F6
:1000C8007D01CB0015307E01980009307D01A1002B
:1000D80009307E019900BD01BE01BF01C801C901F7
:1000E800CA01D301D401D501E901EA01EB010800F5
:1000F800C834003400340034003400340034003490
:100108000034003400340034003400340034003447
:100118000034003400340034003400340034003437
:100128000034003400340034003400340034003427
:100138000034003400340034003400340034003417
:1001480031340134263401340034003400340034AE
:1001580051340134003400340034003400340034A5
:1001680000340034003400340034003400340034E7
:1001780000340034003400340034003400340034D7
:100188000034003400340034483042019F0090307D
:100198009D0006309E0001309B009C010030FA0053
:1001A8000030FB008131312180310030FA0000300D
:1001B800FB00813126218031F601F70108008131E9
:1001C8005A21803180312A2080318031C820803105
:1001D80081313C2180318131512180318031F920B8
:1001E800803181311B2180310800013045019000A8
:1001F80008308F009101FF308D008C010030FA002B
:100208000030FB0081316F2180314E019010803029
:1002180045018E000800F9340034003400340034FD
:100228000034003400346F340134003400344E019B
:100238000C100B140030FA000030FB0081317421DF
:10024800813108007A087B0403192B292C293029CD
:100258007B08F3007A08F20008007A087B04031987
:10026800362937293B297B08F5007A08F40008006D
:100278009F3046018E008D018C0144011E08FC3917
:1002880001389E00080000340A3410340134003468
:10029800643400341034013400344E0119100F1046
:1002A80043018F01900192018D01080062305101D4
:1002B8008D008F01910102309300920108006400C3
:1002C80080010131890B642900348031E3208131B8
:1002D8006C29803114287B08F1007A08F0000800A6
:0C02E8007B08F9007A08F8000800080004
:020000040001F9
:0A000E008F3FFF3F9F3FFF3FFF3F82
:00000001FF
