:0400000080312828FB
:1000060008007E1480314E01161E0A280B2813287C
:100016000C1E0E280F2813289731262780312628F4
:100026000B1F162817282628991E1A281B2826284B
:100036008F1E1E281F282628410142088A004108D3
:100046000A00803126287E10090080312A28F030E7
:1000560084002D3085000030FE000230FF0097310D
:100066005F278031F601F701F801F901FA01400135
:10007600EA01EB01EC01ED01EE01EF01A030840095
:10008600003085002C30FE000030FF0097315F27DE
:1000960080317E104001883163284101E601E70185
:1000A60040016208B0006108AF00B230B10098307C
:1000B600B2008B318C238031400130084101D100E0
:1000C60040012F084101D00087286635D23E8600C0
:1000D60087015008C03F5108C13F0130E607003094
:1000E600E73D00304001AF00B000B230B1009830BB
:1000F600B2008B318C238031400130084101D100A0
:1001060040012F084101D00050085104031D8C28DE
:100116008D28682853084001A1004101520840017A
:10012600A000AD30A2009830A3008931142180319F
:10013600400120082104031DA128A228DF286E08FB
:100146000319A628A728AD28C33088318C20803112
:100156004001EE014101C301C40155084001A70059
:10016600410154084001A6008D31472580314001E8
:1001760026084101C50057084001A700410156085D
:100186004001A6008D3147258031400126084101F6
:10019600C600CB01C3308A3171228031003A03197F
:1001A600D528D628D9284001EE01EE0A4001EF01F4
:1001B6004101B501B601A22B410153084001A1003E
:1001C600410152084001A000AB30A2009830A300C4
:1001D600893114218031400120082104031DF428AF
:1001E600F5280129C330883142208031C330883157
:1001F6008C2080314001EE01EF01A22B4101530812
:100206004001A100410152084001A000A330A20014
:100216009830A3008931142180314001200821043F
:10022600031D162917296B296E0803191B291C297A
:100236006B294101CC01CD01572941014C084001F0
:10024600AD00410155084001A70041015408400195
:10025600A6008D314725803140012608AE004101B8
:1002660057084001A700410156084001A6008D31FC
:100276004725803140012608AF0041015908400159
:10028600A700410158084001A6008D31472580315D
:1002960040012608B000C3308C315F248031013024
:1002A6004101CC070030CD3D4D08803A4001E500C4
:1002B60080306502031D6229410145084C02031C7A
:1002C600652966292029C3308331B2238031A22BC8
:1002D600410153084001A100410152084001A0001C
:1002E6008430A2009830A300893114218031400166
:1002F60020082104031D80298129C7296E080319B6
:1003060085298629C729410155084001A7004101D1
:1003160054084001A6008D3147258031400126084A
:10032600AD00410157084001A700410156084001B0
:10033600A6008D314725803140012608AE004101D7
:1003460059084001A700410158084001A6008D3117
:100356004725803140012608AF0041015B08400176
:10036600A70041015A084001A6008D31472580317A
:1003760040012608B000C3308C315F248031C33081
:100386008331B2238031A22B410153084001A100E1
:10039600410152084001A0004E30A2009830A3004F
:1003A600893114218031400120082104031DDC29F4
:1003B600DD29F6296E080319E129E229F62941010A
:1003C60055084001A700410154084001A6008D319F
:1003D60047258031400126084101C600C3308331DC
:1003E600B2238031A22B410153084001A1004101F3
:1003F60052084001A0009930A2009830A30089312C
:1004060014218031400120082104031D0B2A0C2AE7
:10041600392A6E080319102A112A392A4101CE01F8
:10042600CF01252A41014E084001AD00AE01AF01C2
:10043600B001C3308C315F24803101304101CE07D9
:100446000030CF3D4F08803A4001E500803065021C
:10045600031D302A410145084E02031C332A342A63
:10046600152AC3308331B2238031A22B41015308B0
:100476004001A100410152084001A0006B30A200DA
:100486009830A300893114218031400120082104CD
:10049600031D4E2A4F2A6E2A6E080319532A542A20
:1004A6006E2A410155084001A70041015408400148
:1004B600A6008D314725803140012608AD00AE01EA
:1004C600AF01B001C3308C315F248031C33083313A
:1004D600B2238031A22B410153084001A100410102
:1004E60052084001A0003F30A2009830A300893195
:1004F60014218031400120082104031D832A842A07
:10050600EA2A6E080319882A892AEA2A4101E6019D
:10051600E701C42A410166084001AD0041015508C2
:100526004001A700410154084001A6008D3147252E
:10053600803140012608AE00410157084001A7005E
:10054600410156084001A6008D3147258031400102
:100556002608AF00410159084001A700410158088B
:100566004001A6008D314725803140012608B000A4
:10057600C3308C315F24803101304101E607003001
:10058600E73D6708803A4001E50080306502031DBB
:10059600CF2A410145086602031CD22AD32A8D2A96
:1005A60041015B084001A70041015A084001A6002D
:1005B6008D3147258031400127084101B6004001B1
:1005C60026084101B5004001EF01EF0AA22B4101C7
:1005D60053084001A100410152084001A0005D30CE
:1005E600A2009830A30089311421803140012008EF
:1005F6002104031DFF2A002B062B6E080319042B6A
:10060600052B062BFF28410153084001A10041019B
:1006160052084001A0001C30A2009830A300893186
:1006260014218031400120082104031D1B2B1C2BA3
:10063600712B6E080319202B212B712B41015508B4
:100646004001A700410154084001A6008D3147250D
:10065600803140012608AD00410157084001A7003E
:10066600410156084001A6008D31472580314001E1
:100676002608AE00410159084001A700410158086B
:100686004001A6008D314725803140012608AF0084
:1006960041015B084001A70041015A084001A6003C
:1006A6008D314725803140012608B000C3308C319A
:1006B6005F24803141015D084001A70041015C08CB
:1006C6004001A6008D3147258031400127084101B0
:1006D600B600400126084101B500E62A410153084B
:1006E6004001A100410152084001A0002E30A200A5
:1006F6009830A3008931142180314001200821045B
:10070600031D862B872BA22B6E0803198B2B8C2B94
:10071600A22B410155084001A700410154084001A0
:10072600A6008D314725803140012608AD00AE0177
:10073600AF01B001C3308C315F248031A22BF03081
:100746004001A6002E30A7000030A800A900803086
:10075600AA000030AB009731A7278031080040017E
:10076600DB005B08063E86008701403FD100413F23
:10077600D2005B08023E860087010108C200C30161
:100786004208A0004308A1001830A2000030A300D0
:1007960088310120833140012108B5002008B400CA
:1007A60087312E27833140013508D8003408D70019
:1007B600D9013D2D0330A2000030A3005908C20024
:1007C600C3014208A0004308A100883101208331FB
:1007D60040012008510786002108523D8700010884
:1007E600C400C5014408D5004508D6006430A600FB
:1007F6000030A7005608A1005508A0005B08033E7C
:10080600860087010108C200C3014208A20043080E
:10081600A30088310120833140012108A900200866
:10082600A8008B312C23833140012608C8000330F1
:10083600A2000030A3005908C200C3014208A0006C
:100846004308A10088310120833140012008510767
:10085600C4002108523DC5004408860045088700AB
:1008660041310108C600C7014608D5004708D60031
:100876006430A6000030A7005608A1005508A00065
:100886005B08033E860087010108C200C3014208D7
:10089600A2004308A30088310120833140012108CA
:1008A600A9002008A8008B312C238331400126089B
:1008B600C9000330A2000030A3005908C200C301DA
:1008C6004208A0004308A10088310120833140017D
:1008D60020085107C4002108523DC500440886007F
:1008E6004508870042310108C600C7014608D50001
:1008F6004708D6006430A6000030A7005608A100BD
:100906005508A0005B08033E860087010108C20067
:10091600C3014208A2004308A300883101208331A5
:1009260040012108A9002008A8008B312C2383311F
:1009360040012608CA00DA015A08C200C301590854
:10094600C400C5014408A0004508A1001830A20053
:100956000030A3008831012083314001420820077E
:10096600D3004308213DD4000130C2005A08073C99
:10097600890ABE2CC235890BBD2C42084805031DC9
:10098600C52CC62CCB2C0430CB000030CC00CF2C91
:100996000E30CB000030CC0053085707C200540875
:1009A600583DC30042088600430887004B08810073
:1009B6000130C2005A08073C890AE22CC235890B6D
:1009C600E12C42084905031DE92CEA2CEF2C0430E2
:1009D600CD000030CE00F32C0E30CD000030CE001E
:1009E60053085707C2005408583DC3004208083E42
:1009F600C4000030433DC500440886004508870012
:100A06004D0881000130C2005A08073C890A0C2DA6
:100A1600C235890B0B2D42084A05031D132D142DD3
:100A2600192D0430CF000030D0001D2D0E30CF0020
:100A36000030D00053085707C2005408583DC30081
:100A46004208103EC4000030433DC50044088600FD
:100A5600450887004F0881000130C2004208DA07C6
:100A660008305A02031C382D392D9F2C0130C20044
:100A76004208D9075B08023E860087010108590231
:100A8600031C462D472DDD2B5808A7005708A60046
:100A96005B08023E860087010108C200C3014208C6
:100AA600A0004308A1001830A2000030A30088313E
:100AB6000120833140012108A9002008A8008831BF
:100AC6002120833140015808A1005708A0008E312B
:100AD6004226833103304001C200F530890B712D67
:100AE600C20B712D08004001DB005B08063E860044
:100AF6008701403FD200413FD3005B08023E86009B
:100B060087010108C300C4014308A0004408A100EE
:100B16001830A2000030A300883101208531400141
:100B26002108B5002008B40087312E278531400101
:100B36003508D9003408D800DA01F52E0330A200B2
:100B46000030A3005A08C300C4014308A0004408AB
:100B5600A100883101208531400120085207860016
:100B66002108533D87000108C500C6014508D60087
:100B76004608D7006430A6000030A7005708A10039
:100B86005608A0004208C300C4014308A200440856
:100B9600A30088310120853140012108A9002008E1
:100BA600A8008B312C23853140012608C90003306B
:100BB600A2000030A3005A08C300C4014308A000E5
:100BC6004408A100883101208531400120085207E0
:100BD600C5002108533DC600450886004608870023
:100BE60041310108C700C8014708D6004808D700A8
:100BF6006430A6000030A7005708A1005608A000E0
:100C06004208C300C4014308A2004408A300883177
:100C16000120853140012108A9002008A8008B3158
:100C26002C23853140012608CA000330A20000307B
:100C3600A3005A08C300C4014308A0004408A10049
:100C4600883101208531400120085207C50021085E
:100C5600533DC60045088600460887004231010814
:100C6600C700C8014708D6004808D7006430A60068
:100C76000030A7005708A1005608A0004208C3008C
:100C8600C4014308A2004408A3008831012085312D
:100C960040012108A9002008A8008B312C238531AA
:100CA60040012608CB00DC015C08C300C4015A08D9
:100CB600C500C6014508A0004608A1001830A200DC
:100CC6000030A30088310120853140014308200708
:100CD600D4004408213DD5000130C3005C08073C20
:100CE600890A762EC335890B752E43084905031DDF
:100CF6007D2E7E2E832E0430CC000030CD00872E34
:100D06000E30CC000030CD0054085807C3005508FB
:100D1600593DC40043088600440887004C088100FA
:100D26000130C3005C08073C890A9A2EC335890B3B
:100D3600992E43084A05031DA12EA22EA72E043084
:100D4600CE000030CF00AB2E0E30CE000030CF00EC
:100D560054085807C3005508593DC4004308083EC7
:100D6600C5000030443DC600450886004608870099
:100D76004E0881000130C3005C08073C890AC42E76
:100D8600C335890BC32E43084B05031DCB2ECC2E32
:100D9600D12E0430D0000030D100D52E0E30D00038
:100DA6000030D10054085807C3005508593DC40007
:100DB6004308103EC5000030443DC6004508860085
:100DC60046088700500881000130C3004308DC074D
:100DD60008305C02031CF02EF12E572E0130C300A2
:100DE6004308DA075B08023E8600870101085A02BB
:100DF600031CFE2EFF2EA12D5908A7005808A60099
:100E06005B08023E860087010108C300C40143084F
:100E1600A0004408A1001830A2000030A3008831C9
:100E26000120853140012108A9002008A800883149
:100E36002120853140015908A1005808A0008E31B3
:100E46004226853103304001C300F530890B292F36
:100E5600C30B292F08004001BC01BD01340835042D
:100E6600031D362F372F3B2F0130B4070030B53D19
:100E7600003035020230031934020318432F442F81
:100E8600492F0230B4000030B500612F3508B70095
:100E96003408B600B609B709003037020230031924
:100EA60036020318572F582F612F0C304101B3001B
:100EB6000030B4004001B401B501EA2F3508A100A5
:100EC6003408A0008E31E026873140012108BF009A
:100ED6002008BE003E083F04031D722F732FE52F26
:100EE600410131082F024001B60041013208303B72
:100EF6004001B70035083702031D832F3408360238
:100F06000318862F872FBC2F3408023EB800003006
:100F1600353DB90038308A31262287314001210813
:100F2600C1002008C00040084104031D9B2F9C2FD0
:100F36009D2F5D2F4101300840014106031DA72F5B
:100F460041012F08400140060319AA2FAB2FB22FEB
:100F560041084101B200400140084101B100400191
:100F6600380840074101AF0040013908413D4101C1
:100F7600B000410132084001BF0041013108400183
:100F8600BE003F08BB003E08BA003A0886003B0890
:100F960087003408C03F3508C13F0230BA07003029
:100FA600BB3D3B08BF003A08BE003408023EB6000F
:100FB6000030353DB70036084101B107400137081A
:100FC6004101B23D40013F08B5003E08B4000800AB
:100FD60097312F2787318A31CE2287318831B72042
:100FE600873197314A278731973153278731080050
:0A0FF60042011D121D16080008003C
:101002004001A401A501201C072808280C28220859
:10101200A4072308A53D0130A235A30D890B0D2895
:101022000130A136A00C890B122820082104031DCF
:101032001B281C2804282508A1002408A000080059
:1010420040012708AB002608AA002908AD0028089D
:10105200AC003B282A0886002B08870001084301C0
:101062008C0001304001AA070030AB3D0130AC02D8
:101072000030AD3B2C082D04031D402841282B28AD
:1010820008004001DE00DD0154285D08AD00AE011C
:10109200AF01B0015E088C315F248831013040011C
:1010A200DC005C08DD075E08023E8600870101085D
:1010B2005D02031C5D285E2846285E088331B22348
:1010C200883108008731EB2788318B170B175101C4
:1010D2008C17410143084001A6008B31EF23883170
:1010E20040016F08031976287728842841013608C1
:1010F2004001DE00410135084001DD00C3308D3181
:10110200C42588318628630000008931AC218831EA
:101112007128803128284001AA002A08063E86004C
:101122008701403FA000413FA1008E314226883115
:1011320040012A08063E860087010030C03FC13FB9
:101142002A08860087010030C03FC13F2A08023EBC
:101152008600870181012A08033E860087018101FA
:101162002A08083E86008701810108004E01991273
:10117200D2304001A0000C30A1009731982788316D
:10118200483042019F0090309D0006309E0044305E
:101192009B009C0103304001A0000030A100973168
:1011A2007A278831FB304001A0000730A100973137
:1011B200892788314101BB01BC01FA01F901F8011B
:1011C2004E01991608007908703E860087012F307B
:1011D200873D01084001A5007908013E7F39A4003E
:1011E2002408F9007908A000A101A035A10DF03072
:1011F200A2002D30A3002008220786002108233DEB
:101202008700403F4101BB00413FBC004E019912A3
:10121200780803190D290E2910290130F8029916B0
:101222004001250808001D290130A0070030A13D1A
:101232000130A2070030A33D4001220884002308A8
:1012420085000008A4002008860021088700010804
:101252002406031D2D292E2937292008860021085E
:1012620087000108031D3629372915292008860021
:101272002108870022088400230885000008010253
:10128200A000A101031CA10308004001AD01AE01B1
:1012920052290130A7070030A83D0130AD070030C8
:1012A200AE3D2708860028088700010803195A293D
:1012B2005B2974292A08A1002908A00027088600B2
:1012C200280887000108AB00AC012B08A2002C08FB
:1012D200A3009731E1278931400120082104031935
:1012E200732974294A292E08A8002D08A70008008E
:1012F2004001AD01AE0185290130A7070030A83DAC
:101302000130AD070030AE3D27088600280887006F
:10131200010803198D298E29A7292A08A100290865
:10132200A00027088600280887000108AB00AC014E
:101332002B08A2002C08A3009731E1278931400134
:1013420020082104031DA629A7297D292E08A8000B
:101352002D08A7000800E0298831E42089314001E6
:10136200ED006C08F03EE600E7012E30E73D66082E
:101372008600670887006D0881000130E600660874
:10138200EC0781306C02031CC729C829C929EC016A
:101392000A306D06031DCE29CF29E029F030E10085
:1013A2002E30E2006C08E600E7016608E3006708F9
:1013B200E4008031502089314001EC01ED01973188
:1013C2001E278931003A031DE729E829AD290800C3
:1013D2004001A601A701200821040319F129F229DD
:1013E200212AA501A50AFE290130A035A10D890BEC
:1013F200F6290130A4002408A507A11F012A022A08
:10140200F5290130A635A70D890B032A21082302ED
:10141200031D0D2A20082202031C102A112A162A53
:101422002008A2022108A33B26140130A136A00CF9
:10143200890B172A0130A502031D202A212A022A1C
:101442002708A1002608A00008004001A2002208E7
:1014520086008701403FA300413FA4006A086B0455
:10146200031D342A352A392AF030EA002D30EB00E8
:10147200003024020430031923020318412A422AAD
:10148200462A0430A3000030A40023086A02A50003
:1014920024086B3BA600203026029A30031925024D
:1014A200031C542A552A5F2A6B082602031D5B2A55
:1014B2006A082502031C5E2A5F2A682A0C30410151
:1014C200B3000030B4004001A001A101702A260837
:1014D200EB002508EA006B08A1006A08A0000800DA
:1014E2004001E0006008023E860087010108DC003E
:1014F200DD015C08A0005D08A1000330A2000030FD
:10150200A300883101208A3140012108B50020085A
:10151200B40087312E278A3140013508DF003408B4
:10152200DE005E085F04031D972A982A9A2A00307B
:10153200CD2A6008063E860087015E08C03F5F082C
:10154200C13F6008063E86008701403FA600413F3A
:10155200A7000030A800A9006008023E86008701AB
:101562000108DC00DD015C08A0005D08A100033079
:10157200A2000030A300883101208A3140012108F5
:10158200AB002008AA009731A7278A3140016008E2
:101592008331B2238A31013008004001960197015C
:1015A200980199019A01FF309100FC309200FF30BE
:1015B2009300FF30940007309500FF307E01B800A1
:1015C200FA30C300FF30CE00FF30D9000730E4000C
:1015D200B901C401CF01DA01E501BA01C501D001A7
:1015E200DB01E601FF30BB00FF30C600FF30D10057
:1015F200FF30DC000730E700FF30BC00FF30C700DF
:10160200FF30D200FF30DD000F30E8000A307D01EC
:10161200CB0015307E01980009307D01A100093010
:101622007E019900BD01BE01BF010430C800043033
:10163200C900CA01D301D401D501E901EA01EB01D4
:10164200FF304001A0000730A100973141278A31C5
:101652004E01161608004001AC01A71F312B322B98
:10166200392BA609A709A60A0319A70AAC01AC0AD5
:10167200A91F3C2B3D2B462BA809A909A80A03192F
:10168200A90A0130AA002A08AC06AD01AE0126085B
:10169200270403194D2B4E2B7D2BAB01AB0A5A2B82
:1016A2000130A635A70D890B522B0130AA002A085A
:1016B200AB07A71F5D2B5E2B512B0130AD35AE0D55
:1016C200890B5F2B27082902031D692B2608280294
:1016D200031C6C2B6D2B722B2608A8022708A93B32
:1016E2002D140130A736A60C890B732B0130AB02E7
:1016F200031D7C2B7D2B5E2B2C080319812B822B47
:10170200872BAD09AE09AD0A0319AE0A2E08A70050
:101712002D08A600080040012F083004031D922B5B
:10172200932BA42B41012E084001B00041012D084A
:101732004001AF002F083004031DA02BA12BA42BC6
:10174200AF01B001EE2B3008A8002F08A700320825
:10175200AA003108A900893179218B31400127087B
:10176200AF072808B03D2F0886003008870001081F
:10177200031DBC2BBD2BC42B4101AD01AE014001A9
:10178200AF01B001EE2B3008A8002F08A7003208E5
:10179200AA003108A900893146218B31400127086E
:1017A2002F074101AD0040012808303D4101AE0044
:1017B2002D0886002E08870001080319E12BE22B71
:1017C200EC2B2D0886002E08870081010130AD0721
:1017D2000030AE3DEE2BAD01AE0108004301901A80
:1017E200F32BF42B5E2C40012608A700A801270842
:1017F200A0002808A1000530A2000030A300883113
:1018020001208B318F304001200784001830213DA8
:1018120080388500000843018F0040012608A70098
:10182200A8012708A0002808A1000530A200003066
:10183200A300883101208B319030400120078400C1
:101842001830213D80388500000843019000400196
:101852002608A700A8012708A0002808A100053033
:10186200A2000030A300883101208B319130400169
:10187200200784001830213D80388500000843018C
:10188200920040012608A700A8012708A000280806
:10189200A1000530A2000030A300883101208B3165
:1018A20092304001200784001830213D80388500A5
:1018B200000843018D0090165E2C08004001B9001B
:1018C2003908023E8600870101082D02031C6A2C9A
:1018D2006B2C6C2CD12C3908063E86008701403FC8
:1018E200B700413FB8002D08B100B2013108A00095
:1018F2003208A1000330A2000030A3008831012089
:101902008C31400120083707B3002108383DB4006C
:1019120033088600340887002F0881002D08B100A3
:10192200B2013108A0003208A1000330A200003049
:10193200A300883101208C31400120083707B30011
:101942002108383DB4003308013EB5000030343D73
:10195200B60035088600360887002E0881002D085B
:10196200B100B2013108A0003208A1000330A20088
:101972000030A300883101208C3140012008370754
:10198200B3002108383DB4003308023EB5000030F0
:10199200343DB600350886003608870030088100DD
:1019A20008007A08F000F101F035F10DF030F20094
:1019B2002D30F3007008720786007108733D8700AE
:1019C2000030C03FC13F42019D1CE82CE92C052D8F
:1019D2007A08F000F101F035F10DF030F2002D300F
:1019E200F3007008720786007108733D87000115C5
:1019F2004101370838040319FF2C002D052D380842
:101A02008A0037080A008D3142011D1D092D0A2D59
:101A1200262D7A08F000F101F035F10DF030F200D8
:101A22002D30F3007008720786007108733D87003D
:101A32008114410139083A040319202D212D262D44
:101A42003A088A0039080A008D3142011908F40067
:101A52007A08013E7F39F50075087906031D322D9B
:101A6200332D342D462D7A08703EF000F1012F30CF
:101A7200F13D7008860071088700740881007508BE
:101A8200FA000130F0007008F80708004001AB01CD
:101A9200AC01AA01502D0130A6070030A73D26084F
:101AA200860027088700203001060319592D5A2D78
:101AB2004C2D2608860027088700F7300107A8006A
:101AC20005302802031C662D672D4C2D2608860042
:101AD200270887002D300106031D702D712D782DEA
:101AE200AA01AA0A0130A6070030A73DA12D2608A7
:101AF2008600270887002B300106031D812D822DC9
:101B0200A12D732D26088600270887002C08A10026
:101B12002B08A0000A30A2000030A3008831012067
:101B22008D3140012108A90001082002A800031CF0
:101B3200A9032808303EAB000030293DAC00732DCC
:101B42002608860027088700D0300107A8000A303F
:101B52002802031CAD2DAE2D832D2A08031DB22DA4
:101B6200B32DBF2D2B09A8002C09A900A80A03191F
:101B7200A90A2808A6002908A700C32D2C08A70037
:101B82002B08A60008004001E9006908033E860010
:101B920087010108DF00E00160085E02031DD32D0A
:101BA2005F085D020318D62DD72DD82D412E690866
:101BB200033E860087010108DF00E0015F08A00004
:101BC2006008A1005E08A3005D08A2008931E92136
:101BD2008D3140012008E1002108E200E236E10CEB
:101BE2006108E3006208E4006908033E8600870199
:101BF2000108DF00E0015F08E7006008E800E81F75
:101C0200032E042E052E192E6708C200690885319D
:101C120076258D3140016408A1006308A000973148
:101C2200C4278D31FF304001E707FF30E83D002E29
:101C3200E501E601302E40016508C20069088531E0
:101C420076258D3140016408A1006308A000973118
:101C5200C4278D3101304001E5070030E63D6908B7
:101C6200033E860087016608803ADF0080305F020B
:101C7200031D3D2E01086502031C402E412E1C2E21
:101C8200080040012108A7002008A600200821041E
:101C9200031D4C2E4D2E4E2EDF2E2608FE3EA80092
:101CA200FF30273DA900760877040319592E5A2ED2
:101CB200D62E2808860029088700403F2607A20062
:101CC200413F273DA30077082306031D6A2E7608AD
:101CD2002206031D6D2E6E2E992E76088600770839
:101CE2008700423128088400290885000231403FDC
:101CF200803F413F813F7608860077088700403F5A
:101D0200A200413FA3002208023EA4000030233D6E
:101D1200A500280886002908870024088107413188
:101D22002508813D7F312908F7002808F600DF2EBB
:101D32007608860077088700403F7607A200413F79
:101D4200773DA3002208023EA4000030233DA500F7
:101D520029082506031DAF2E28082406031DB22ECE
:101D6200B32ECC2E2808860029088700403FA20007
:101D7200413FA3002208023EA4000030233DA500FB
:101D820076088600770887002408810741312508F4
:101D9200813D7F31DF2E28088600290887004231E5
:101DA2007608C03F7708C13F942E2808860029088C
:101DB200870042310030C03FC13F942E08004001ED
:101DC200B201B301A801A901AC01AD017608770403
:101DD200031DEC2EED2EF02EA001A101FF2F77089E
:101DE200B1007608B000742F3008860031088700F1
:101DF200403FA200413FA30021082306031D032FF9
:101E020020082206031D062F072F2C2F2C082D0435
:101E120003190C2F0D2F1C2F300886003108870064
:101E220042312C0884002D0885000231403F803F5A
:101E3200413F813F252F300886003108870042311B
:101E4200403FF600413FF7003008023EA00000305C
:101E5200313DA100FF2F3008860031088700403F46
:101E6200A200413FA30023082102031D3A2F2208AA
:101E7200200203183D2F3E2F672F32083304031927
:101E8200432F442F5F2F3208860033088700403FDC
:101E9200A200413FA3003008860031088700403F7E
:101EA200A400413FA50023082502031D5A2F220842
:101EB2002402031C5D2F5E2F5F2F672F3108B300B2
:101EC2003008B2002D08A9002C08A8003108AD0086
:101ED2003008AC0030088600310887004231403FAC
:101EE200B000413FB10030083104031D792F7A2F31
:101EF200F52E3208330403197F2F802FED2E32087E
:101F02008600330887004231403FAE00413FAF00B8
:101F12003208860033088700403FA200413FA300F9
:101F220020082202A4002108233BA500003025023C
:101F3200053003192402031C9F2FA02FE12F320822
:101F4200860033088700403FA200413FA3002008DB
:101F52002202A4002108233BA5002408FE3EA6007D
:101F6200FF30253DA700320886003308870020088D
:101F7200C03F2108C13F3208860033088700403F36
:101F82003207A200413F333DA3002208023EAA00CD
:101F92000030233DAB002A0886002B088700260864
:101FA200C03F2708C13F2A0886002B08870042311C
:101FB2002E08C03F2F08C13F2B08AF002A08AE00F1
:101FC20033087706031DE72F32087606031DEA2F32
:101FD200EB2FF02F2F08F7002E08F600F92F280814
:101FE20086002908870042312E08C03F2F08C13FD2
:101FF2003208023EA0000030333DA1000800B73491
:10200200083400340034E4340834003400341E341C
:102012001734003400340034003400340034003407
:10202200003400340034003400340034003400340E
:1020320000340034003400340034003400340034FE
:1020420000340034003498341734003400347A34C5
:0E20520017348934173400340034003400345D
:102E3C007808031D222F242F0130252F0030080085
:102E4C007E014A1D2A2F2B2F2E2F97316B2797315E
:102E5C000800603051018D008F0191010630930004
:102E6C0092010800400121084101C00040012008E6
:102E7C004101BF000800400121084101E900400167
:102E8C0020084101E80008004E0119100F10430101
:102E9C008F01900192018D0108004E010C100B1452
:102EAC0000304001A0000030A10097313827973145
:102EBC0008006400800101310130FE020030FF3B4C
:102ECC007F087E04031D602F0034410168086904EB
:102EDC000319712F722F772F69088A0068080A006E
:102EEC0097317E014A110800400120082104031982
:102EFC00802F812F882F21084101BA004001200822
:102F0C004101B900080040012008210403198F2F4A
:102F1C00902F972F21084101B80040012008410152
:102F2C00B700080040012008210403199E2F9F2F91
:102F3C00A62F21084101C200400120084101C10017
:102F4C00080040012708AD002608AC00B72F2C085C
:102F5C0086002D088700280881000130AC0700305E
:102F6C00AD3D0130AA020030AB3B2A0A031DC22F33
:102F7C002B0A031DC22FC32FAD2F08004001A30144
:102F8C00A401D62F0B304001A2006230890BCC2F4C
:102F9C00A20BCC2F000001304001A3070030A43D50
:102FAC0021082402031DDC2F20082302031CDF2F21
:102FBC00E02FC82F0800400120088400210885005C
:102FCC0000082206031DEB2FEC2FED2FFF2F2108FD
:102FDC00A5002008A400A00A0319A10A2408840053
:102FEC00250885001200031DFC2FFD2FE12FA001E9
:102FFC00A10108004A34173400340034EF340B3488
:10300C0000340034003400340034003421340834EB
:10301C000034003400340034003400340034003404
:10302C00003400340034003400340034533454344D
:10303C004134523454345F3446344134443445348E
:10304C005F34533449344E3447344C3445340034B3
:10305C00533454344F3450345F3446344134443454
:10306C0045345F34533449344E3447344C3445344E
:10307C000034533454344134523454345F34463471
:10308C004134443445345F3441344C344C34003492
:10309C005334453454345F34423452344934473415
:1030AC00483454344E34453453345334003453344C
:1030BC0054344F3450345F34463441344434453402
:1030CC005F3441344C344C34003443344C34453448
:1030DC00413452345F34533449344E3447344C34D5
:1030EC0045340034003400340034003400340034EF
:1030FC00003400340034003400340034533445348C
:10310C0054345F34533449344E3447344C3445349E
:10311C00003440340A341034013400346434003444
:10312C0010340134003443344C344534413452347B
:10313C005F3441344C344C340034533445345434BF
:10314C005F3441344C344C340034443445344934C9
:0C315C004E344934543400342C34003418
:020000040001F9
:0A000E00EC3F3F3F9F3FFF3FFF3FE5
:00000001FF
