:1000000080312828080008007E1480314E01161E19
:100010000A280B2813280C1E0E280F2813288031BD
:100020000320803126280B1F162817282628991E02
:100030001A281B2826288F1E1E281F282628410123
:100040003B088A003A080A00803126287E10090001
:1000500080312A28F03084002D3085000030FE00E9
:100060000230FF00893179218031F601F701F80172
:10007000F901FA01A0308400003085002930FE002B
:100080000030FF008931792180314201A001A101B6
:10009000A201A301A401A501A601A701A8017E1048
:1000A0004001893162294101E701E8014A08400124
:1000B000B000410149084001AF00E230B10090308A
:1000C000B2008D315A258031400130084101D20003
:1000D00040012F084101D1008C286735D33E8600AE
:1000E00087015108C03F5208C13F0130E707003087
:1000F000E83D00304001AF00B000E230B100903088
:10010000B2008D315A258031400130084101D200C2
:1001100040012F084101D10051085204031D9128CC
:1001200092286D2854084001A10041015308400164
:10013000A000DD30A2009030A3008B310923803174
:10014000400120082104031DA628A728DF2841011B
:100150003E080319AC28AD28B328C0308A3151229B
:1001600080314101BE01C001C10156084001A70014
:10017000410155084001A6008731792780314001AF
:1001800026084101C20058084001A7004101570854
:100190004001A600873179278031400126084101BE
:1001A000C300C801C0308C31F8248031003A0319F3
:1001B000DA28DB28B52B4101BE01BE0AB52B41016F
:1001C00054084001A100410153084001A000DB3068
:1001D000A2009030A3008B31092380314001200818
:1001E0002104031DF428F5280129C0308A31D922C1
:1001F0008031C0308A31512280314101BE01BF01BE
:10020000B52B410154084001A100410153084001B0
:10021000A000D330A2009030A3008B31092380319D
:10022000400120082104031D162917296F294101C7
:100230003E0803191C291D296F29CD01CE0157291C
:1002400041014D084001AD00410156084001A700A1
:10025000410155084001A6008731792780314001CE
:100260002608AE00410158084001A7004101570887
:100270004001A60087317927803140012608AF0070
:1002800041015A084001A700410159084001A60058
:1002900087317927803140012608B000C0308D3188
:1002A000BD25803101304101CD070030CE3D4E08E3
:1002B000803A4001EE0080306E02031D6229410148
:1002C00042084D02031C6529662920294101430883
:1002D0004001C200C0308331C5238031B52B4101BC
:1002E00054084001A100410153084001A000BE3064
:1002F000A2009030A3008B310923803140012008F7
:100300002104031D84298529CF2941013E080319B1
:100310008A298B29CF2956084001A7004101550899
:100320004001A60087317927803140012608AD00C1
:10033000410158084001A700410157084001A600AB
:1003400087317927803140012608AE0041015A08E3
:100350004001A700410159084001A60087317927D3
:10036000803140012608AF0041015C084001A70030
:1003700041015B084001A6008731792780314001A7
:100380002608B000C0308D31BD25803141014308C1
:100390004001C200C0308331C5238031B52B4101FB
:1003A00054084001A100410153084001A0008830D9
:1003B000A2009030A3008B31092380314001200836
:1003C0002104031DE429E529012A41013E080319FE
:1003D000EA29EB29012A56084001A70041015508E6
:1003E0004001A6008731792780314001260841016C
:1003F000C30043084001C200C0308331C5238031AF
:10040000B52B410154084001A100410153084001AE
:10041000A000C930A2009030A3008B3109238031A5
:10042000400120082104031D162A172A482A4101E9
:100430003E0803191C2A1D2A482ACF01D001302A60
:1004400041014F084001AD00AE01AF01B001C03025
:100450008D31BD25803101304101CF070030D03DC5
:100460005008803A4001EE0080306E02031D3B2AA6
:10047000410142084F02031C3E2A3F2A202A410123
:1004800043084001C200C0308331C5238031B52B01
:10049000410154084001A100410153084001A0005E
:1004A000A530A2009030A3008B3109238031400198
:1004B00020082104031D5D2A5E2A812A41013E088D
:1004C0000319632A642A812A56084001A7004101C2
:1004D00055084001A6008731792780314001260860
:1004E000AD00AE01AF01B001C0308D31BD2580310E
:1004F000410143084001C200C0308331C52380312F
:10050000B52B410154084001A100410153084001AD
:10051000A0007930A2009030A3008B3109238031F4
:10052000400120082104031D962A972AFC2A410134
:100530003E0803199C2A9D2AFC2AE701E801D72AD4
:10054000410167084001AD00410156084001A70084
:10055000410155084001A6008731792780314001CB
:100560002608AE00410158084001A7004101570884
:100570004001A60087317927803140012608AF006D
:1005800041015A084001A700410159084001A60055
:1005900087317927803140012608B000C0308D3185
:1005A000BD25803101304101E7070030E83D680892
:1005B000803A4001EE0080306E02031DE22A4101C4
:1005C00042086702031CE52AE62AA02A41015C08CA
:1005D0004001A70041015B084001A600873179274F
:1005E0008031400127084101AF0040012608410148
:1005F000AE00BF01BF0AB52B410154084001A10064
:10060000410153084001A0009730A2009030A300A0
:100610008B3109238031400120082104031D112B57
:10062000122B192B41013E080319172B182B192BDC
:10063000FF28410154084001A10041015308400135
:10064000A0005630A2009030A3008B3109238031E6
:10065000400120082104031D2E2B2F2B842B410148
:100660003E080319342B352B842B56084001A70074
:10067000410155084001A6008731792780314001AA
:100680002608AD00410158084001A7004101570864
:100690004001A60087317927803140012608AE004D
:1006A00041015A084001A700410159084001A60034
:1006B00087317927803140012608AF0041015C086D
:1006C0004001A70041015B084001A600873179275E
:1006D000803140012608B000C0308D31BD25803109
:1006E00041015E084001A70041015D084001A600EC
:1006F000873179278031400127084101AF0040014F
:1007000026084101AE00F92A410154084001A10028
:10071000410153084001A0006830A2009030A300BE
:100720008B3109238031400120082104031D992BBE
:100730009A2BB52B41013E0803199F2BA02BB52BFB
:1007400056084001A700410155084001A600873125
:100750007927803140012608AD00AE01AF01B0011C
:10076000C0308D31BD258031B52BF0304001A60061
:100770002E30A7000030A800A9008030AA00003069
:10078000AB008931F521803108004001E80068089C
:10079000063E86008701403FD800413FD9006808E7
:1007A000023E860087010108C300C4014308A0007F
:1007B0004408A1001830A2000030A3008A31312281
:1007C000833140012108B5002008B4008F31432750
:1007D000833140013508E7003408E6006608670405
:1007E000031DF32BF42BF52B582EE001E101F02D26
:1007F00003304001A2000030A3006108A10060089E
:10080000A0008A3131228331400120085807860038
:100810002108593D87000108C300C4014308DE00D8
:100820004408DF006430A6000030A7005F08A10084
:100830005E08A0004208C300C4014308A2004408A7
:10084000A3008A313122833140012108A900200808
:10085000A8008C319824833140012608D30003304E
:10086000A2000030A3006108A1006008A0008A3146
:1008700031228331400120085807C3002108593D27
:10088000C400430886004408870041310108C500C0
:10089000C6014508DE004608DF006430A6000030CF
:1008A000A7005F08A1005E08A0004208C300C401C1
:1008B0004308A2004408A3008A3131228331400159
:1008C0002108A9002008A8008C3198248331400118
:1008D0002608D4000330A2000030A3006108A10064
:1008E0006008A0008A313122833140012008580776
:1008F000C3002108593DC40043088600440887000E
:1009000042310108C500C6014508DE004608DF0087
:100910006430A6000030A7005F08A1005E08A000B8
:100920004208C300C4014308A2004408A3008A315E
:100930003122833140012108A9002008A8008C3110
:100940009824833140012608D5006808083E8600B7
:10095000870101080319AD2CAE2C4D2DE201E301F6
:1009600040016108A1006008A0001830A20000301A
:10097000A3008A3131228331400162082007DA0066
:100980006308213DDB000130C3006208073C890A8F
:10099000CA2CC335890BC92C43085305031DD12C20
:1009A000D22CD72C0A30C7000030C800DB2C143002
:1009B000C7000030C8005A086607C3005B08673DDF
:1009C000C4004308860044088700470881000130BE
:1009D000C3006208073C890AEE2CC335890BED2C55
:1009E00043085405031DF52CF62CFB2C0A30C900D6
:1009F0000030CA00FF2C1430C9000030CA005A0869
:100A00006607C3005B08673DC4004308083EC50095
:100A10000030443DC6004508860046088700490866
:100A200081000130C3006208073C890A182DC335D4
:100A3000890B172D43085505031D1F2D202D252D2E
:100A40000A30CB000030CC00292D1430CB00003010
:100A5000CC005A086607C3005B08673DC400430822
:100A6000103EC5000030443DC600450886004608DB
:100A700087004B0881000130E2070030E33D630846
:100A8000803AC30080304302031D482D08306202C3
:100A9000031C4B2D4C2DB02CEB2DE401E501400146
:100AA0006108A1006008A0001830A2000030A30077
:100AB0008A3131228331400164082007DC00650857
:100AC000213DDD000130C3006408073C890A692D1F
:100AD000C335890B682D43085305031D702D712DF7
:100AE000762D0A30CD000030CE007A2D1430CD00A6
:100AF0000030CE005C086607C3005D08673DC40097
:100B000043088600440887004D0881000130C30077
:100B10006408073C890A8D2DC335890B8C2D430849
:100B20005405031D942D952D9A2D0A30CF000030C9
:100B3000D0009E2D1430CF000030D0005C08660736
:100B4000C3005D08673DC4004308083EC50000308F
:100B5000443DC60045088600460887004F088100CE
:100B60000130C3006408073C890AB72DC335890BDF
:100B7000B62D43085505031DBE2DBF2DC42D0A30CB
:100B8000D1000030D200C82D1430D1000030D20086
:100B90005C086607C3005D08673DC4004308103E5B
:100BA000C5000030443DC600450886004608870061
:100BB000510881000130E4070030E53D6508803AC6
:100BC000C30080304302031DE72D08306402031C7C
:100BD000EA2DEB2D4F2D01304001E0070030E13DC3
:100BE0006808023E860087016108803AC3008030B1
:100BF0004302031DFD2D01086002031C002E012E7F
:100C0000F82B40016808083E860087010108031997
:100C10000A2E0B2E0C2E482ED601D701272E40016E
:100C20005608660786005708673D87000108C3001D
:100C3000C4014308A0004408A1008931DC218331AC
:100C400045018E1701304001D6070030D73D6808B6
:100C5000023E860087010108C300C4014308A000CA
:100C60004408A1001830A2000030A3008A313122CC
:100C7000833140015708803AC5002108803A450277
:100C8000031D442E20085602031C472E482E0F2E0B
:100C900040016708A1006608A0008E31A5268331B7
:100CA00003304001C300F530890B542EC30B542E82
:100CB00008004001B201B301A801A901AC01AD01D6
:100CC00076087704031D652E662E692EA001A1010A
:100CD000782F7708B1007608B000ED2E3008860036
:100CE00031088700403FA200413FA30021082306AE
:100CF000031D7C2E20082206031D7F2E802EA52E8C
:100D00002C082D040319852E862E952E300886007A
:100D10003108870042312C0884002D0885000231FB
:100D2000403F803F413F813F9E2E30088600310882
:100D300087004231403FF600413FF7003008023E55
:100D4000A0000030313DA100782F30088600310826
:100D50008700403FA200413FA30023082102031D5A
:100D6000B32E220820020318B62EB72EE02E32082A
:100D700033040319BC2EBD2ED82E3208860033084A
:100D80008700403FA200413FA300300886003108A1
:100D90008700403FA400413FA50023082502031D12
:100DA000D32E22082402031CD62ED72ED82EE02EB6
:100DB0003108B3003008B2002D08A9002C08A800A3
:100DC0003108AD003008AC003008860031088700DB
:100DD0004231403FB000413FB10030083104031DB3
:100DE000F22EF32E6E2E320833040319F82EF92E4C
:100DF000662E32088600330887004231403FAE003D
:100E0000413FAF003208860033088700403FA20010
:100E1000413FA30020082202A4002108233BA50093
:100E200000302502053003192402031C182F192F46
:100E30005A2F3208860033088700403FA200413F06
:100E4000A30020082202A4002108233BA5002408B7
:100E5000FE3EA600FF30253DA7003208860033087D
:100E600087002008C03F2108C13F320886003308B0
:100E70008700403F3207A200413F333DA3002208D4
:100E8000023EAA000030233DAB002A0886002B0852
:100E900087002608C03F2708C13F2A0886002B0884
:100EA000870042312E08C03F2F08C13F2B08AF00FA
:100EB0002A08AE0033087706031D602F3208760635
:100EC000031D632F642F692F2F08F7002E08F600EB
:100ED000722F280886002908870042312E08C03F5B
:100EE0002F08C13F3208023EA0000030333DA10070
:100EF00008004001AB01AC01AA01822F0130A60716
:100F00000030A73D2608860027088700203001060C
:100F100003198B2F8C2F7E2F260886002708870029
:100F2000F7300107A80005302802031C982F992FDD
:100F30007E2F26088600270887002D300106031D16
:100F4000A22FA32FAA2FAA01AA0A0130A6070030B8
:100F5000A73DD32F26088600270887002B300106DF
:100F6000031DB32FB42FD32FA52F260886002708E3
:100F700087002C08A1002B08A0000A30A200003036
:100F8000A3008A313122873140012108A9000108DC
:100F90002002A800031CA9032808303EAB00003043
:100FA000293DAC00A52F2608860027088700D030F1
:100FB0000107A8000A302802031CDF2FE02FB52FFD
:100FC0002A08031DE42FE52FF12F2B09A8002C0977
:100FD000A900A80A0319A90A2808A6002908A70039
:100FE000F52F2C08A7002B08A6000800603051013F
:100FF0008D0040308F00910106309300920108006F
:1012720042011D121D1608007808031D4129432949
:101282000130442900300800400121084101B90021
:10129200400120084101B800080040012108410135
:1012A200B700400120084101B60008008F30460116
:1012B2008E008D018C0144011E08FC3901389E000C
:1012C20008008931B22189318B170B178B31A12389
:1012D20089316729803128284E010C100B14003007
:1012E2004001A0000030A100893145218931080068
:1012F2006400800101310130FE020030FF3B7F08B3
:101302007E04031D7A2900344001200821040319B8
:101312008B298C29932921084101B300400120081F
:101322004101B200080040012008210403199A2952
:101332009B29A22921084101B10040012008410155
:10134200B00008004001200821040319A929AA2994
:10135200B12921084101BB00400120084101BA0026
:1013620008008731F62789318B31EB2389318A31A5
:101372007C2289318931572189318931C5218931CD
:1013820089316D21893108000130450190002830F2
:101392008F00910109308D008C0100304001A000C6
:1013A2000030A10089314E2189314E0190108030E8
:1013B20045018E000800FF304001A0050330A10561
:1013C20046010E1EE529E629EC2906304001A0352A
:1013D200A10D890BE8294001210846018D00400139
:1013E200200846018C00080040012708AD002608AD
:1013F200AC00052A2C0886002D08870028088100E9
:101402000130AC070030AD3D0130AA020030AB3BE9
:101412002A0A031D102A2B0A031D102A112AFB294E
:1014220008004001200884002108850000082206E7
:10143200031D1C2A1D2A1E2A302A2108A500200865
:10144200A400A00A0319A10A240884002508850023
:101452001200031D2D2A2E2A122AA001A101080022
:101462004001A401A501201C372A382A3C2A22085F
:10147200A4072308A53D0130A235A30D890B3D2AFF
:101482000130A136A00C890B422A20082104031D39
:101492004B2A4C2A342A2508A1002408A00008005F
:1014A2004001AA002A08063E86008701403FA000AC
:1014B200413FA1008E31A5268A3140012A08063E0D
:1014C200860087010030C03FC13F2A08860087019D
:1014D2000030C03FC13F2A08023E860087018101D9
:1014E2002A08033E8600870181012A08083E8600F9
:1014F2008701810108004E01991230304001A0009D
:101502000E30A1008931A3218A31483042019F0067
:1015120090309D0006309E0044309B009C010230BA
:101522004001A0000030A100893185218A31393083
:101532004001A0000930A100893194218A31410182
:10154200B401B501FA01F901F8014E01991608003A
:101552007908703E860087012F30873D01084001DF
:10156200A5007908013E7F39A4002408F900790812
:10157200A000A101A035A10DF030A2002D30A300E2
:101582002008220786002108233D8700403F4101B1
:10159200B400413FB5004E01991278080319D22ACE
:1015A200D32AD52A0130F8029916400125080800ED
:1015B2004001EC00EA01EB01ED2A40016A08AD00AE
:1015C200AE01AF01B0016C088D31BD258A31013009
:1015D2004001EA070030EB3D6C08023E86008701BD
:1015E2006B08803AE90080306902031DFA2A01087B
:1015F2006A02031CFD2AFE2ADE2A40016C088600CC
:101602008701433FC2006C088331C5238A31080039
:10161200122B0130A0070030A13D0130A20700309B
:10162200A33D400122088400230885000008A4008D
:10163200200886002108870001082406031D222BAA
:10164200232B2C2B20088600210887000108031D6C
:101652002B2B2C2B0A2B200886002108870022081E
:1016620084002308850000080102A000A101031CD8
:10167200A10308004001AD01AE01472B0130A707CD
:101682000030A83D0130AD070030AE3D270886008E
:1016920028088700010803194F2B502B692B2A08B1
:1016A200A1002908A0002708860028088700010851
:1016B200AB00AC012B08A2002C08A3008A31122235
:1016C2008B314001200821040319682B692B3F2B21
:1016D2002E08A8002D08A70008004001AD01AE01A8
:1016E2007A2B0130A7070030A83D0130AD0700304A
:1016F200AE3D270886002808870001080319822BBF
:10170200832B9C2B2A08A1002908A0002708860009
:10171200280887000108AB00AC012B08A2002C08A6
:10172200A3008A3112228B31400120082104031DBB
:101732009B2B9C2B722B2E08A8002D08A7000800BB
:1017420089313D218B31003A0319A82BA92BA12BFA
:101752008A31A9228B314101BD003C08F03EE900EB
:10176200EA012E30EA3D690886006A0887003D08D2
:1017720081000130E9006908BC0781303C02031C8A
:10178200C32BC42BC52BBC010A303D06031DCA2B3B
:10179200CB2BEA2BF030C9002E30CA003C08E900FE
:1017A200EA016908CB006A08CC00803153208B31F2
:1017B200F0304001A6002E30A7000030A800A9009A
:1017C2008030AA000030AB008931F5218B31410114
:1017D200BC010800400196019701980199019A0104
:1017E200FF309100FC309200FF309300FF309400F4
:1017F20007309500FF307E01B800FA30C300FF3099
:10180200CE00FF30D9000730E400B901C401CF0196
:10181200DA01E501BA01C501D001DB01E601FF30C1
:10182200BB00FF30C600FF30D100FF30DC000730C4
:10183200E700FF30BC00FF30C700FF30D200FF30AE
:10184200DD000F30E8000A307D01CB0015307E014B
:10185200980009307D01A10009307E019900BD0187
:10186200BE01BF01C801C901CA01D301D401D5011A
:10187200E901EA01EB0108004001A200220886000A
:101882008701403FA300413FA400410126082704ED
:10189200031D4C2C4D2C512CF030A6002D30A700EE
:1018A20000304001240204300319230203185A2C89
:1018B2005B2C5F2C0430A3000030A40023084101FC
:1018C20026024001A50024084101273B4001A60051
:1018D20020302602A93003192502031C712C722C18
:1018E200802C4101270840012602031D7C2C410166
:1018F200260840012502031C7F2C802C892C0C30E9
:101902004101AC000030AD004001A001A101972CC3
:1019120026084101A700400125084101A600270829
:101922004001A100410126084001A0000800400139
:10193200AC01A71F9D2C9E2CA52CA609A709A60ABF
:101942000319A70AAC01AC0AA91FA82CA92CB22C16
:10195200A809A909A80A0319A90A0130AA002A0894
:10196200AC06AD01AE01260827040319B92CBA2C26
:10197200E92CAB01AB0AC62C0130A635A70D890BA9
:10198200BE2C0130AA002A08AB07A71FC92CCA2CFB
:10199200BD2C0130AD35AE0D890BCB2C27082902A9
:1019A200031DD52C26082802031CD82CD92CDE2C8A
:1019B2002608A8022708A93B2D140130A736A60C39
:1019C200890BDF2C0130AB02031DE82CE92CCA2C59
:1019D2002C080319ED2CEE2CF32CAD09AE09AD0A3F
:1019E2000319AE0A2E08A7002D08A6000800400120
:1019F200ED006D08023E860087010108E900EA0158
:101A02006908A0006A08A1000330A2000030A30008
:101A12008A3131228C3140012108B5002008B400FE
:101A22008F3143278C3140013508EC003408EB003C
:101A32006B086C04031D1E2D1F2D212D0030592D06
:101A42006D08063E860087016B08C03F6C08C13FE7
:101A52006D08063E86008701403FA600413FA70071
:101A62000030A800A9006D08023E86008701010827
:101A7200E900EA016908A0006A08A1000330A20097
:101A82000030A3008A3131228C3140012108AB00A1
:101A92002008AA008931F5218C3140016D088600A9
:101AA2008701433FC2006D088331C5238C31013069
:101AB200080040012F083004031D602D612D722D96
:101AC200410125084001B000410124084001AF0056
:101AD2002F083004031D6E2D6F2D722DAF01B00142
:101AE200BC2D3008A8002F08A7003208AA00310830
:101AF200A9008B316E238D3140012708AF072808DA
:101B0200B03D2F088600300887000108031D8A2D8A
:101B12008B2D922D4101A401A5014001AF01B0011D
:101B2200BC2D3008A8002F08A7003208AA003108EF
:101B3200A9008B313B238D31400127082F0741013A
:101B4200A40040012808303D4101A5002408860078
:101B52002508870001080319AF2DB02DBA2D2408DE
:101B620086002508870081010130A4070030A53DC9
:101B7200BC2DA401A50108004001B9003908023EAC
:101B82008600870101082D02031CC82DC92DCA2D0C
:101B92002F2E3908063E86008701403FB700413F9D
:101BA200B8002D08B100B2013108A0003208A1002E
:101BB2000330A2000030A3008A3131228D3140016E
:101BC20020083707B3002108383DB40033088600E7
:101BD200340887002F0881002D08B100B2013108B6
:101BE200A0003208A1000330A2000030A3008A3115
:101BF20031228D31400120083707B3002108383DDA
:101C0200B4003308013EB5000030343DB60035085B
:101C12008600360887002E0881002D08B100B20127
:101C22003108A0003208A1000330A2000030A30056
:101C32008A3131228D31400120083707B300210853
:101C4200383DB4003308023EB5000030343DB600E2
:101C520035088600360887003008810008007A08B7
:101C6200F000F101F035F10DF030F2002D30F3000B
:101C72007008720786007108733D87000030C03F0C
:101C8200C13F42019D1C462E472E632E7A08F0006A
:101C9200F101F035F10DF030F2002D30F300700853
:101CA200720786007108733D8700011541013008F3
:101CB200310403195D2E5E2E632E31088A0030082E
:101CC2000A008E3142011D1D672E682E842E7A086D
:101CD200F000F101F035F10DF030F2002D30F3009B
:101CE2007008720786007108733D870081144101F4
:101CF2003208330403197E2E7F2E842E33088A0085
:101D020032080A008E3142011908F4007A08013EB5
:101D12007F39F50075087906031D902E912E922EBB
:101D2200A42E7A08703EF000F1012F30F13D7008C8
:101D3200860071088700740881007508FA00013076
:101D4200F0007008F807080040012108A7002008E9
:101D5200A60020082104031DAF2EB02EB12E422F63
:101D62002608FE3EA800FF30273DA900760877042A
:101D72000319BC2EBD2E392F28088600290887009A
:101D8200403F2607A200413F273DA30077082306D4
:101D9200031DCD2E76082206031DD02ED12EFC2E39
:101DA20076088600770887004231280884002908CF
:101DB20085000231403F803F413F813F76088600E7
:101DC20077088700403FA200413FA3002208023E5D
:101DD200A4000030233DA5002808860029088700BA
:101DE2002408810741312508813D7F312908F70008
:101DF2002808F600422F7608860077088700403FC1
:101E02007607A200413F773DA3002208023EA400CC
:101E12000030233DA50029082506031D122F28089E
:101E22002406031D152F162F2F2F28088600290898
:101E32008700403FA200413FA3002208023EA400C7
:101E42000030233DA5007608860077088700240825
:101E5200810741312508813D7F31422F28088600C4
:101E62002908870042317608C03F7708C13FF72E24
:101E7200280886002908870042310030C03FC13F50
:101E8200F72E08004001BC01BD0134083504031DD2
:101E92004B2F4C2F502F0130B4070030B53D00308E
:101EA20035020230031934020318582F592F5E2FBE
:101EB2000230B4000030B500762F3508B700340880
:101EC200B600B609B70900303702023003193602EC
:101ED20003186C2F6D2F762F0C304101AC000030AF
:101EE200AD004001B401B501FF2F3508A10034084F
:101EF200A000863159268F3140012108BF002008F9
:101F0200BE003E083F04031D872F882FFA2F410190
:101F12002A0828024001B60041012B08293B400152
:101F2200B70035083702031D982F3408360203180C
:101F32009B2F9C2FD12F3408023EB8000030353D34
:101F4200B90038308C313D248F3140012108C10065
:101F52002008C00040084104031DB02FB12FB22F4A
:101F6200722F4101290840014106031DBC2F410186
:101F72002808400140060319BF2FC02FC72F410870
:101F82004101AB00400140084101AA00400138086C
:101F920040074101A80040013908413D4101A90023
:101FA20041012B084001BF0041012A084001BE0047
:101FB2003F08BB003E08BA003A0886003B0887008B
:101FC2003408C03F3508C13F0230BA070030BB3D7C
:101FD2003B08BF003A08BE003408023EB60000309B
:101FE200353DB70036084101AA07400137084101D3
:101FF200AB3D40013F08B5003E08B40008007C3408
:102002000A3400340034A9340A34003400343D3434
:102012000934003400340034003400340034003415
:10202200003400340034003400340034003400340E
:1020320000340034003400340034003400340034FE
:10204200003400340034A3340934003400348534BD
:102052000934943409340034003400340034003438
:1020620000340034003400340034003400340034CE
:1020720000340034003400340034003400340034BE
:1020820000340034003400340034003400340034AE
:1020920000340034003440340A3410340134003443
:1020A2006434003410340134003453345434413431
:1020B200523454345F3446344134443445345F340A
:1020C200533449344E3447344C3445340034533459
:1020D20054344F3450345F344634413444344534FC
:1020E2005F34533449344E3447344C34453400342D
:1020F200533454344134523454345F3446344134CA
:10210200443445345F3441344C344C340034533419
:10211200453454345F3442345234493447344834B9
:1021220054344E34453453345334003453345434D9
:102132004F3450345F3446344134443445345F3490
:1021420041344C344C34003443344C3445344134FF
:1021520052345F34533449344E3447344C3445346A
:102162000034C534093400340034003400340034FF
:1021720000344E340934003400345334453454347A
:102182005F34533449344E3447344C34453400348C
:1021920043344C344534413452345F3441344C344A
:1021A2004C3400345334453454345F3441344C3469
:1021B2004C3400344434453449344E344934543474
:0621C20000342C3400344F
:020000040001F9
:0A000E00EC3E3F3F9F3FFF3FFF3FE6
:00000001FF
